{"contracts/ETHDaddy.sol":{"ETHDaddy":{"abi":[{"inputs":[{"internalType":"string","name":"_name","type":"string"},{"internalType":"string","name":"_symbol","type":"string"}],"stateMutability":"nonpayable","type":"constructor"},{"anonymous":false,"inputs":[{"indexed":true,"internalType":"address","name":"owner","type":"address"},{"indexed":true,"internalType":"address","name":"approved","type":"address"},{"indexed":true,"internalType":"uint256","name":"tokenId","type":"uint256"}],"name":"Approval","type":"event"},{"anonymous":false,"inputs":[{"indexed":true,"internalType":"address","name":"owner","type":"address"},{"indexed":true,"internalType":"address","name":"operator","type":"address"},{"indexed":false,"internalType":"bool","name":"approved","type":"bool"}],"name":"ApprovalForAll","type":"event"},{"anonymous":false,"inputs":[{"indexed":true,"internalType":"address","name":"from","type":"address"},{"indexed":true,"internalType":"address","name":"to","type":"address"},{"indexed":true,"internalType":"uint256","name":"tokenId","type":"uint256"}],"name":"Transfer","type":"event"},{"inputs":[{"internalType":"address","name":"to","type":"address"},{"internalType":"uint256","name":"tokenId","type":"uint256"}],"name":"approve","outputs":[],"stateMutability":"nonpayable","type":"function"},{"inputs":[{"internalType":"address","name":"owner","type":"address"}],"name":"balanceOf","outputs":[{"internalType":"uint256","name":"","type":"uint256"}],"stateMutability":"view","type":"function"},{"inputs":[{"internalType":"uint256","name":"tokenId","type":"uint256"}],"name":"getApproved","outputs":[{"internalType":"address","name":"","type":"address"}],"stateMutability":"view","type":"function"},{"inputs":[],"name":"getBalance","outputs":[{"internalType":"uint256","name":"","type":"uint256"}],"stateMutability":"view","type":"function"},{"inputs":[{"internalType":"uint256","name":"_id","type":"uint256"}],"name":"getDomain","outputs":[{"components":[{"internalType":"string","name":"name","type":"string"},{"internalType":"uint256","name":"cost","type":"uint256"},{"internalType":"bool","name":"isOwned","type":"bool"}],"internalType":"struct ETHDaddy.Domain","name":"","type":"tuple"}],"stateMutability":"view","type":"function"},{"inputs":[{"internalType":"address","name":"owner","type":"address"},{"internalType":"address","name":"operator","type":"address"}],"name":"isApprovedForAll","outputs":[{"internalType":"bool","name":"","type":"bool"}],"stateMutability":"view","type":"function"},{"inputs":[{"internalType":"string","name":"_name","type":"string"},{"internalType":"uint256","name":"_cost","type":"uint256"}],"name":"list","outputs":[],"stateMutability":"nonpayable","type":"function"},{"inputs":[],"name":"maxSupply","outputs":[{"internalType":"uint256","name":"","type":"uint256"}],"stateMutability":"view","type":"function"},{"inputs":[{"internalType":"uint256","name":"_id","type":"uint256"}],"name":"mint","outputs":[],"stateMutability":"payable","type":"function"},{"inputs":[],"name":"name","outputs":[{"internalType":"string","name":"","type":"string"}],"stateMutability":"view","type":"function"},{"inputs":[],"name":"owner","outputs":[{"internalType":"address","name":"","type":"address"}],"stateMutability":"view","type":"function"},{"inputs":[{"internalType":"uint256","name":"tokenId","type":"uint256"}],"name":"ownerOf","outputs":[{"internalType":"address","name":"","type":"address"}],"stateMutability":"view","type":"function"},{"inputs":[{"internalType":"address","name":"from","type":"address"},{"internalType":"address","name":"to","type":"address"},{"internalType":"uint256","name":"tokenId","type":"uint256"}],"name":"safeTransferFrom","outputs":[],"stateMutability":"nonpayable","type":"function"},{"inputs":[{"internalType":"address","name":"from","type":"address"},{"internalType":"address","name":"to","type":"address"},{"internalType":"uint256","name":"tokenId","type":"uint256"},{"internalType":"bytes","name":"data","type":"bytes"}],"name":"safeTransferFrom","outputs":[],"stateMutability":"nonpayable","type":"function"},{"inputs":[{"internalType":"address","name":"operator","type":"address"},{"internalType":"bool","name":"approved","type":"bool"}],"name":"setApprovalForAll","outputs":[],"stateMutability":"nonpayable","type":"function"},{"inputs":[{"internalType":"bytes4","name":"interfaceId","type":"bytes4"}],"name":"supportsInterface","outputs":[{"internalType":"bool","name":"","type":"bool"}],"stateMutability":"view","type":"function"},{"inputs":[],"name":"symbol","outputs":[{"internalType":"string","name":"","type":"string"}],"stateMutability":"view","type":"function"},{"inputs":[{"internalType":"uint256","name":"tokenId","type":"uint256"}],"name":"tokenURI","outputs":[{"internalType":"string","name":"","type":"string"}],"stateMutability":"view","type":"function"},{"inputs":[],"name":"totalSupply","outputs":[{"internalType":"uint256","name":"","type":"uint256"}],"stateMutability":"view","type":"function"},{"inputs":[{"internalType":"address","name":"from","type":"address"},{"internalType":"address","name":"to","type":"address"},{"internalType":"uint256","name":"tokenId","type":"uint256"}],"name":"transferFrom","outputs":[],"stateMutability":"nonpayable","type":"function"},{"inputs":[],"name":"withdraw","outputs":[],"stateMutability":"nonpayable","type":"function"}],"evm":{"bytecode":{"linkReferences":{},"object":"60806040523480156200001157600080fd5b50604051620037583803806200375883398181016040528101906200003791906200023b565b818181600090816200004a91906200050b565b5080600190816200005c91906200050b565b50505033600660006101000a81548173ffffffffffffffffffffffffffffffffffffffff021916908373ffffffffffffffffffffffffffffffffffffffff1602179055505050620005f2565b6000604051905090565b600080fd5b600080fd5b600080fd5b600080fd5b6000601f19601f8301169050919050565b7f4e487b7100000000000000000000000000000000000000000000000000000000600052604160045260246000fd5b6200011182620000c6565b810181811067ffffffffffffffff82111715620001335762000132620000d7565b5b80604052505050565b600062000148620000a8565b905062000156828262000106565b919050565b600067ffffffffffffffff821115620001795762000178620000d7565b5b6200018482620000c6565b9050602081019050919050565b60005b83811015620001b157808201518184015260208101905062000194565b60008484015250505050565b6000620001d4620001ce846200015b565b6200013c565b905082815260208101848484011115620001f357620001f2620000c1565b5b6200020084828562000191565b509392505050565b600082601f83011262000220576200021f620000bc565b5b815162000232848260208601620001bd565b91505092915050565b60008060408385031215620002555762000254620000b2565b5b600083015167ffffffffffffffff811115620002765762000275620000b7565b5b620002848582860162000208565b925050602083015167ffffffffffffffff811115620002a857620002a7620000b7565b5b620002b68582860162000208565b9150509250929050565b600081519050919050565b7f4e487b7100000000000000000000000000000000000000000000000000000000600052602260045260246000fd5b600060028204905060018216806200031357607f821691505b602082108103620003295762000328620002cb565b5b50919050565b60008190508160005260206000209050919050565b60006020601f8301049050919050565b600082821b905092915050565b600060088302620003937fffffffffffffffffffffffffffffffffffffffffffffffffffffffffffffffff8262000354565b6200039f868362000354565b95508019841693508086168417925050509392505050565b6000819050919050565b6000819050919050565b6000620003ec620003e6620003e084620003b7565b620003c1565b620003b7565b9050919050565b6000819050919050565b6200040883620003cb565b620004206200041782620003f3565b84845462000361565b825550505050565b600090565b6200043762000428565b62000444818484620003fd565b505050565b5b818110156200046c57620004606000826200042d565b6001810190506200044a565b5050565b601f821115620004bb5762000485816200032f565b620004908462000344565b81016020851015620004a0578190505b620004b8620004af8562000344565b83018262000449565b50505b505050565b600082821c905092915050565b6000620004e060001984600802620004c0565b1980831691505092915050565b6000620004fb8383620004cd565b9150826002028217905092915050565b6200051682620002c0565b67ffffffffffffffff811115620005325762000531620000d7565b5b6200053e8254620002fa565b6200054b82828562000470565b600060209050601f8311600181146200058357600084156200056e578287015190505b6200057a8582620004ed565b865550620005ea565b601f19841662000593866200032f565b60005b82811015620005bd5784890151825560018201915060208501945060208101905062000596565b86831015620005dd5784890151620005d9601f891682620004cd565b8355505b6001600288020188555050505b505050505050565b61315680620006026000396000f3fe60806040526004361061012a5760003560e01c80634a878dfa116100ab578063a0712d681161006f578063a0712d68146103f2578063a22cb4651461040e578063b88d4fde14610437578063c87b56dd14610460578063d5abeb011461049d578063e985e9c5146104c85761012a565b80634a878dfa146102f95780636352211e1461032257806370a082311461035f5780638da5cb5b1461039c57806395d89b41146103c75761012a565b806318160ddd116100f257806318160ddd146102285780631a7a98e21461025357806323b872dd146102905780633ccfd60b146102b957806342842e0e146102d05761012a565b806301ffc9a71461012f57806306fdde031461016c578063081812fc14610197578063095ea7b3146101d457806312065fe0146101fd575b600080fd5b34801561013b57600080fd5b5061015660048036038101906101519190611ed8565b610505565b6040516101639190611f20565b60405180910390f35b34801561017857600080fd5b506101816105e7565b60405161018e9190611fcb565b60405180910390f35b3480156101a357600080fd5b506101be60048036038101906101b99190612023565b610679565b6040516101cb9190612091565b60405180910390f35b3480156101e057600080fd5b506101fb60048036038101906101f691906120d8565b6106bf565b005b34801561020957600080fd5b506102126107d6565b60405161021f9190612127565b60405180910390f35b34801561023457600080fd5b5061023d6107de565b60405161024a9190612127565b60405180910390f35b34801561025f57600080fd5b5061027a60048036038101906102759190612023565b6107e4565b60405161028791906121fa565b60405180910390f35b34801561029c57600080fd5b506102b760048036038101906102b2919061221c565b6108c8565b005b3480156102c557600080fd5b506102ce610928565b005b3480156102dc57600080fd5b506102f760048036038101906102f2919061221c565b610a1d565b005b34801561030557600080fd5b50610320600480360381019061031b91906123a4565b610a3d565b005b34801561032e57600080fd5b5061034960048036038101906103449190612023565b610b26565b6040516103569190612091565b60405180910390f35b34801561036b57600080fd5b5061038660048036038101906103819190612400565b610bac565b6040516103939190612127565b60405180910390f35b3480156103a857600080fd5b506103b1610c63565b6040516103be9190612091565b60405180910390f35b3480156103d357600080fd5b506103dc610c89565b6040516103e99190611fcb565b60405180910390f35b61040c60048036038101906104079190612023565b610d1b565b005b34801561041a57600080fd5b5061043560048036038101906104309190612459565b610de1565b005b34801561044357600080fd5b5061045e6004803603810190610459919061253a565b610df7565b005b34801561046c57600080fd5b5061048760048036038101906104829190612023565b610e59565b6040516104949190611fcb565b60405180910390f35b3480156104a957600080fd5b506104b2610ec1565b6040516104bf9190612127565b60405180910390f35b3480156104d457600080fd5b506104ef60048036038101906104ea91906125bd565b610ec7565b6040516104fc9190611f20565b60405180910390f35b60007f80ac58cd000000000000000000000000000000000000000000000000000000007bffffffffffffffffffffffffffffffffffffffffffffffffffffffff1916827bffffffffffffffffffffffffffffffffffffffffffffffffffffffff191614806105d057507f5b5e139f000000000000000000000000000000000000000000000000000000007bffffffffffffffffffffffffffffffffffffffffffffffffffffffff1916827bffffffffffffffffffffffffffffffffffffffffffffffffffffffff1916145b806105e057506105df82610f5b565b5b9050919050565b6060600080546105f69061262c565b80601f01602080910402602001604051908101604052809291908181526020018280546106229061262c565b801561066f5780601f106106445761010080835404028352916020019161066f565b820191906000526020600020905b81548152906001019060200180831161065257829003601f168201915b5050505050905090565b600061068482610fc5565b6004600083815260200190815260200160002060009054906101000a900473ffffffffffffffffffffffffffffffffffffffff169050919050565b60006106ca82610b26565b90508073ffffffffffffffffffffffffffffffffffffffff168373ffffffffffffffffffffffffffffffffffffffff160361073a576040517f08c379a0000000000000000000000000000000000000000000000000000000008152600401610731906126cf565b60405180910390fd5b8073ffffffffffffffffffffffffffffffffffffffff16610759611010565b73ffffffffffffffffffffffffffffffffffffffff161480610788575061078781610782611010565b610ec7565b5b6107c7576040517f08c379a00000000000000000000000000000000000000000000000000000000081526004016107be90612761565b60405180910390fd5b6107d18383611018565b505050565b600047905090565b60085481565b6107ec611e49565b6009600083815260200190815260200160002060405180606001604052908160008201805461081a9061262c565b80601f01602080910402602001604051908101604052809291908181526020018280546108469061262c565b80156108935780601f1061086857610100808354040283529160200191610893565b820191906000526020600020905b81548152906001019060200180831161087657829003601f168201915b50505050508152602001600182015481526020016002820160009054906101000a900460ff1615151515815250509050919050565b6108d96108d3611010565b826110d1565b610918576040517f08c379a000000000000000000000000000000000000000000000000000000000815260040161090f906127f3565b60405180910390fd5b610923838383611166565b505050565b600660009054906101000a900473ffffffffffffffffffffffffffffffffffffffff1673ffffffffffffffffffffffffffffffffffffffff163373ffffffffffffffffffffffffffffffffffffffff161461098257600080fd5b6000600660009054906101000a900473ffffffffffffffffffffffffffffffffffffffff1673ffffffffffffffffffffffffffffffffffffffff16476040516109ca90612844565b60006040518083038185875af1925050503d8060008114610a07576040519150601f19603f3d011682016040523d82523d6000602084013e610a0c565b606091505b5050905080610a1a57600080fd5b50565b610a3883838360405180602001604052806000815250610df7565b505050565b600660009054906101000a900473ffffffffffffffffffffffffffffffffffffffff1673ffffffffffffffffffffffffffffffffffffffff163373ffffffffffffffffffffffffffffffffffffffff1614610a9757600080fd5b6001600754610aa69190612888565b6007819055506040518060600160405280838152602001828152602001600015158152506009600060075481526020019081526020016000206000820151816000019081610af49190612a68565b506020820151816001015560408201518160020160006101000a81548160ff0219169083151502179055509050505050565b600080610b328361145f565b9050600073ffffffffffffffffffffffffffffffffffffffff168173ffffffffffffffffffffffffffffffffffffffff1603610ba3576040517f08c379a0000000000000000000000000000000000000000000000000000000008152600401610b9a90612b86565b60405180910390fd5b80915050919050565b60008073ffffffffffffffffffffffffffffffffffffffff168273ffffffffffffffffffffffffffffffffffffffff1603610c1c576040517f08c379a0000000000000000000000000000000000000000000000000000000008152600401610c1390612c18565b60405180910390fd5b600360008373ffffffffffffffffffffffffffffffffffffffff1673ffffffffffffffffffffffffffffffffffffffff168152602001908152602001600020549050919050565b600660009054906101000a900473ffffffffffffffffffffffffffffffffffffffff1681565b606060018054610c989061262c565b80601f0160208091040260200160405190810160405280929190818152602001828054610cc49061262c565b8015610d115780601f10610ce657610100808354040283529160200191610d11565b820191906000526020600020905b815481529060010190602001808311610cf457829003601f168201915b5050505050905090565b60008103610d2857600080fd5b600754811115610d3757600080fd5b600015156009600083815260200190815260200160002060020160009054906101000a900460ff16151514610d6b57600080fd5b60096000828152602001908152602001600020600101543414610d8d57600080fd5b60016009600083815260200190815260200160002060020160006101000a81548160ff02191690831515021790555060086000815480929190610dcf90612c38565b9190505550610dde338261149c565b50565b610df3610dec611010565b83836114ba565b5050565b610e08610e02611010565b836110d1565b610e47576040517f08c379a0000000000000000000000000000000000000000000000000000000008152600401610e3e906127f3565b60405180910390fd5b610e5384848484611626565b50505050565b6060610e6482610fc5565b6000610e6e611682565b90506000815111610e8e5760405180602001604052806000815250610eb9565b80610e9884611699565b604051602001610ea9929190612cbc565b6040516020818303038152906040525b915050919050565b60075481565b6000600560008473ffffffffffffffffffffffffffffffffffffffff1673ffffffffffffffffffffffffffffffffffffffff16815260200190815260200160002060008373ffffffffffffffffffffffffffffffffffffffff1673ffffffffffffffffffffffffffffffffffffffff16815260200190815260200160002060009054906101000a900460ff16905092915050565b60007f01ffc9a7000000000000000000000000000000000000000000000000000000007bffffffffffffffffffffffffffffffffffffffffffffffffffffffff1916827bffffffffffffffffffffffffffffffffffffffffffffffffffffffff1916149050919050565b610fce81611767565b61100d576040517f08c379a000000000000000000000000000000000000000000000000000000000815260040161100490612b86565b60405180910390fd5b50565b600033905090565b816004600083815260200190815260200160002060006101000a81548173ffffffffffffffffffffffffffffffffffffffff021916908373ffffffffffffffffffffffffffffffffffffffff160217905550808273ffffffffffffffffffffffffffffffffffffffff1661108b83610b26565b73ffffffffffffffffffffffffffffffffffffffff167f8c5be1e5ebec7d5bd14f71427d1e84f3dd0314c0f7b2291e5b200ac8c7c3b92560405160405180910390a45050565b6000806110dd83610b26565b90508073ffffffffffffffffffffffffffffffffffffffff168473ffffffffffffffffffffffffffffffffffffffff16148061111f575061111e8185610ec7565b5b8061115d57508373ffffffffffffffffffffffffffffffffffffffff1661114584610679565b73ffffffffffffffffffffffffffffffffffffffff16145b91505092915050565b8273ffffffffffffffffffffffffffffffffffffffff1661118682610b26565b73ffffffffffffffffffffffffffffffffffffffff16146111dc576040517f08c379a00000000000000000000000000000000000000000000000000000000081526004016111d390612d52565b60405180910390fd5b600073ffffffffffffffffffffffffffffffffffffffff168273ffffffffffffffffffffffffffffffffffffffff160361124b576040517f08c379a000000000000000000000000000000000000000000000000000000000815260040161124290612de4565b60405180910390fd5b61125883838360016117a8565b8273ffffffffffffffffffffffffffffffffffffffff1661127882610b26565b73ffffffffffffffffffffffffffffffffffffffff16146112ce576040517f08c379a00000000000000000000000000000000000000000000000000000000081526004016112c590612d52565b60405180910390fd5b6004600082815260200190815260200160002060006101000a81549073ffffffffffffffffffffffffffffffffffffffff02191690556001600360008573ffffffffffffffffffffffffffffffffffffffff1673ffffffffffffffffffffffffffffffffffffffff168152602001908152602001600020600082825403925050819055506001600360008473ffffffffffffffffffffffffffffffffffffffff1673ffffffffffffffffffffffffffffffffffffffff16815260200190815260200160002060008282540192505081905550816002600083815260200190815260200160002060006101000a81548173ffffffffffffffffffffffffffffffffffffffff021916908373ffffffffffffffffffffffffffffffffffffffff160217905550808273ffffffffffffffffffffffffffffffffffffffff168473ffffffffffffffffffffffffffffffffffffffff167fddf252ad1be2c89b69c2b068fc378daa952ba7f163c4a11628f55a4df523b3ef60405160405180910390a461145a83838360016118ce565b505050565b60006002600083815260200190815260200160002060009054906101000a900473ffffffffffffffffffffffffffffffffffffffff169050919050565b6114b68282604051806020016040528060008152506118d4565b5050565b8173ffffffffffffffffffffffffffffffffffffffff168373ffffffffffffffffffffffffffffffffffffffff1603611528576040517f08c379a000000000000000000000000000000000000000000000000000000000815260040161151f90612e50565b60405180910390fd5b80600560008573ffffffffffffffffffffffffffffffffffffffff1673ffffffffffffffffffffffffffffffffffffffff16815260200190815260200160002060008473ffffffffffffffffffffffffffffffffffffffff1673ffffffffffffffffffffffffffffffffffffffff16815260200190815260200160002060006101000a81548160ff0219169083151502179055508173ffffffffffffffffffffffffffffffffffffffff168373ffffffffffffffffffffffffffffffffffffffff167f17307eab39ab6107e8899845ad3d59bd9653f200f220920489ca2b5937696c31836040516116199190611f20565b60405180910390a3505050565b611631848484611166565b61163d8484848461192f565b61167c576040517f08c379a000000000000000000000000000000000000000000000000000000000815260040161167390612ee2565b60405180910390fd5b50505050565b606060405180602001604052806000815250905090565b6060600060016116a884611ab6565b01905060008167ffffffffffffffff8111156116c7576116c6612279565b5b6040519080825280601f01601f1916602001820160405280156116f95781602001600182028036833780820191505090505b509050600082602001820190505b60011561175c578080600190039150507f3031323334353637383961626364656600000000000000000000000000000000600a86061a8153600a85816117505761174f612f02565b5b04945060008503611707575b819350505050919050565b60008073ffffffffffffffffffffffffffffffffffffffff166117898361145f565b73ffffffffffffffffffffffffffffffffffffffff1614159050919050565b60018111156118c857600073ffffffffffffffffffffffffffffffffffffffff168473ffffffffffffffffffffffffffffffffffffffff161461183c5780600360008673ffffffffffffffffffffffffffffffffffffffff1673ffffffffffffffffffffffffffffffffffffffff16815260200190815260200160002060008282546118349190612f31565b925050819055505b600073ffffffffffffffffffffffffffffffffffffffff168373ffffffffffffffffffffffffffffffffffffffff16146118c75780600360008573ffffffffffffffffffffffffffffffffffffffff1673ffffffffffffffffffffffffffffffffffffffff16815260200190815260200160002060008282546118bf9190612888565b925050819055505b5b50505050565b50505050565b6118de8383611c09565b6118eb600084848461192f565b61192a576040517f08c379a000000000000000000000000000000000000000000000000000000000815260040161192190612ee2565b60405180910390fd5b505050565b60006119508473ffffffffffffffffffffffffffffffffffffffff16611e26565b15611aa9578373ffffffffffffffffffffffffffffffffffffffff1663150b7a02611979611010565b8786866040518563ffffffff1660e01b815260040161199b9493929190612fba565b6020604051808303816000875af19250505080156119d757506040513d601f19601f820116820180604052508101906119d4919061301b565b60015b611a59573d8060008114611a07576040519150601f19603f3d011682016040523d82523d6000602084013e611a0c565b606091505b506000815103611a51576040517f08c379a0000000000000000000000000000000000000000000000000000000008152600401611a4890612ee2565b60405180910390fd5b805181602001fd5b63150b7a0260e01b7bffffffffffffffffffffffffffffffffffffffffffffffffffffffff1916817bffffffffffffffffffffffffffffffffffffffffffffffffffffffff191614915050611aae565b600190505b949350505050565b600080600090507a184f03e93ff9f4daa797ed6e38ed64bf6a1f0100000000000000008310611b14577a184f03e93ff9f4daa797ed6e38ed64bf6a1f0100000000000000008381611b0a57611b09612f02565b5b0492506040810190505b6d04ee2d6d415b85acef81000000008310611b51576d04ee2d6d415b85acef81000000008381611b4757611b46612f02565b5b0492506020810190505b662386f26fc100008310611b8057662386f26fc100008381611b7657611b75612f02565b5b0492506010810190505b6305f5e1008310611ba9576305f5e1008381611b9f57611b9e612f02565b5b0492506008810190505b6127108310611bce576127108381611bc457611bc3612f02565b5b0492506004810190505b60648310611bf15760648381611be757611be6612f02565b5b0492506002810190505b600a8310611c00576001810190505b80915050919050565b600073ffffffffffffffffffffffffffffffffffffffff168273ffffffffffffffffffffffffffffffffffffffff1603611c78576040517f08c379a0000000000000000000000000000000000000000000000000000000008152600401611c6f90613094565b60405180910390fd5b611c8181611767565b15611cc1576040517f08c379a0000000000000000000000000000000000000000000000000000000008152600401611cb890613100565b60405180910390fd5b611ccf6000838360016117a8565b611cd881611767565b15611d18576040517f08c379a0000000000000000000000000000000000000000000000000000000008152600401611d0f90613100565b60405180910390fd5b6001600360008473ffffffffffffffffffffffffffffffffffffffff1673ffffffffffffffffffffffffffffffffffffffff16815260200190815260200160002060008282540192505081905550816002600083815260200190815260200160002060006101000a81548173ffffffffffffffffffffffffffffffffffffffff021916908373ffffffffffffffffffffffffffffffffffffffff160217905550808273ffffffffffffffffffffffffffffffffffffffff16600073ffffffffffffffffffffffffffffffffffffffff167fddf252ad1be2c89b69c2b068fc378daa952ba7f163c4a11628f55a4df523b3ef60405160405180910390a4611e226000838360016118ce565b5050565b6000808273ffffffffffffffffffffffffffffffffffffffff163b119050919050565b604051806060016040528060608152602001600081526020016000151581525090565b6000604051905090565b600080fd5b600080fd5b60007fffffffff0000000000000000000000000000000000000000000000000000000082169050919050565b611eb581611e80565b8114611ec057600080fd5b50565b600081359050611ed281611eac565b92915050565b600060208284031215611eee57611eed611e76565b5b6000611efc84828501611ec3565b91505092915050565b60008115159050919050565b611f1a81611f05565b82525050565b6000602082019050611f356000830184611f11565b92915050565b600081519050919050565b600082825260208201905092915050565b60005b83811015611f75578082015181840152602081019050611f5a565b60008484015250505050565b6000601f19601f8301169050919050565b6000611f9d82611f3b565b611fa78185611f46565b9350611fb7818560208601611f57565b611fc081611f81565b840191505092915050565b60006020820190508181036000830152611fe58184611f92565b905092915050565b6000819050919050565b61200081611fed565b811461200b57600080fd5b50565b60008135905061201d81611ff7565b92915050565b60006020828403121561203957612038611e76565b5b60006120478482850161200e565b91505092915050565b600073ffffffffffffffffffffffffffffffffffffffff82169050919050565b600061207b82612050565b9050919050565b61208b81612070565b82525050565b60006020820190506120a66000830184612082565b92915050565b6120b581612070565b81146120c057600080fd5b50565b6000813590506120d2816120ac565b92915050565b600080604083850312156120ef576120ee611e76565b5b60006120fd858286016120c3565b925050602061210e8582860161200e565b9150509250929050565b61212181611fed565b82525050565b600060208201905061213c6000830184612118565b92915050565b600082825260208201905092915050565b600061215e82611f3b565b6121688185612142565b9350612178818560208601611f57565b61218181611f81565b840191505092915050565b61219581611fed565b82525050565b6121a481611f05565b82525050565b600060608301600083015184820360008601526121c78282612153565b91505060208301516121dc602086018261218c565b5060408301516121ef604086018261219b565b508091505092915050565b6000602082019050818103600083015261221481846121aa565b905092915050565b60008060006060848603121561223557612234611e76565b5b6000612243868287016120c3565b9350506020612254868287016120c3565b92505060406122658682870161200e565b9150509250925092565b600080fd5b600080fd5b7f4e487b7100000000000000000000000000000000000000000000000000000000600052604160045260246000fd5b6122b182611f81565b810181811067ffffffffffffffff821117156122d0576122cf612279565b5b80604052505050565b60006122e3611e6c565b90506122ef82826122a8565b919050565b600067ffffffffffffffff82111561230f5761230e612279565b5b61231882611f81565b9050602081019050919050565b82818337600083830152505050565b6000612347612342846122f4565b6122d9565b90508281526020810184848401111561236357612362612274565b5b61236e848285612325565b509392505050565b600082601f83011261238b5761238a61226f565b5b813561239b848260208601612334565b91505092915050565b600080604083850312156123bb576123ba611e76565b5b600083013567ffffffffffffffff8111156123d9576123d8611e7b565b5b6123e585828601612376565b92505060206123f68582860161200e565b9150509250929050565b60006020828403121561241657612415611e76565b5b6000612424848285016120c3565b91505092915050565b61243681611f05565b811461244157600080fd5b50565b6000813590506124538161242d565b92915050565b600080604083850312156124705761246f611e76565b5b600061247e858286016120c3565b925050602061248f85828601612444565b9150509250929050565b600067ffffffffffffffff8211156124b4576124b3612279565b5b6124bd82611f81565b9050602081019050919050565b60006124dd6124d884612499565b6122d9565b9050828152602081018484840111156124f9576124f8612274565b5b612504848285612325565b509392505050565b600082601f8301126125215761252061226f565b5b81356125318482602086016124ca565b91505092915050565b6000806000806080858703121561255457612553611e76565b5b6000612562878288016120c3565b9450506020612573878288016120c3565b93505060406125848782880161200e565b925050606085013567ffffffffffffffff8111156125a5576125a4611e7b565b5b6125b18782880161250c565b91505092959194509250565b600080604083850312156125d4576125d3611e76565b5b60006125e2858286016120c3565b92505060206125f3858286016120c3565b9150509250929050565b7f4e487b7100000000000000000000000000000000000000000000000000000000600052602260045260246000fd5b6000600282049050600182168061264457607f821691505b602082108103612657576126566125fd565b5b50919050565b7f4552433732313a20617070726f76616c20746f2063757272656e74206f776e6560008201527f7200000000000000000000000000000000000000000000000000000000000000602082015250565b60006126b9602183611f46565b91506126c48261265d565b604082019050919050565b600060208201905081810360008301526126e8816126ac565b9050919050565b7f4552433732313a20617070726f76652063616c6c6572206973206e6f7420746f60008201527f6b656e206f776e6572206f7220617070726f76656420666f7220616c6c000000602082015250565b600061274b603d83611f46565b9150612756826126ef565b604082019050919050565b6000602082019050818103600083015261277a8161273e565b9050919050565b7f4552433732313a2063616c6c6572206973206e6f7420746f6b656e206f776e6560008201527f72206f7220617070726f76656400000000000000000000000000000000000000602082015250565b60006127dd602d83611f46565b91506127e882612781565b604082019050919050565b6000602082019050818103600083015261280c816127d0565b9050919050565b600081905092915050565b50565b600061282e600083612813565b91506128398261281e565b600082019050919050565b600061284f82612821565b9150819050919050565b7f4e487b7100000000000000000000000000000000000000000000000000000000600052601160045260246000fd5b600061289382611fed565b915061289e83611fed565b92508282019050808211156128b6576128b5612859565b5b92915050565b60008190508160005260206000209050919050565b60006020601f8301049050919050565b600082821b905092915050565b60006008830261291e7fffffffffffffffffffffffffffffffffffffffffffffffffffffffffffffffff826128e1565b61292886836128e1565b95508019841693508086168417925050509392505050565b6000819050919050565b600061296561296061295b84611fed565b612940565b611fed565b9050919050565b6000819050919050565b61297f8361294a565b61299361298b8261296c565b8484546128ee565b825550505050565b600090565b6129a861299b565b6129b3818484612976565b505050565b5b818110156129d7576129cc6000826129a0565b6001810190506129b9565b5050565b601f821115612a1c576129ed816128bc565b6129f6846128d1565b81016020851015612a05578190505b612a19612a11856128d1565b8301826129b8565b50505b505050565b600082821c905092915050565b6000612a3f60001984600802612a21565b1980831691505092915050565b6000612a588383612a2e565b9150826002028217905092915050565b612a7182611f3b565b67ffffffffffffffff811115612a8a57612a89612279565b5b612a94825461262c565b612a9f8282856129db565b600060209050601f831160018114612ad25760008415612ac0578287015190505b612aca8582612a4c565b865550612b32565b601f198416612ae0866128bc565b60005b82811015612b0857848901518255600182019150602085019450602081019050612ae3565b86831015612b255784890151612b21601f891682612a2e565b8355505b6001600288020188555050505b505050505050565b7f4552433732313a20696e76616c696420746f6b656e2049440000000000000000600082015250565b6000612b70601883611f46565b9150612b7b82612b3a565b602082019050919050565b60006020820190508181036000830152612b9f81612b63565b9050919050565b7f4552433732313a2061646472657373207a65726f206973206e6f74206120766160008201527f6c6964206f776e65720000000000000000000000000000000000000000000000602082015250565b6000612c02602983611f46565b9150612c0d82612ba6565b604082019050919050565b60006020820190508181036000830152612c3181612bf5565b9050919050565b6000612c4382611fed565b91507fffffffffffffffffffffffffffffffffffffffffffffffffffffffffffffffff8203612c7557612c74612859565b5b600182019050919050565b600081905092915050565b6000612c9682611f3b565b612ca08185612c80565b9350612cb0818560208601611f57565b80840191505092915050565b6000612cc88285612c8b565b9150612cd48284612c8b565b91508190509392505050565b7f4552433732313a207472616e736665722066726f6d20696e636f72726563742060008201527f6f776e6572000000000000000000000000000000000000000000000000000000602082015250565b6000612d3c602583611f46565b9150612d4782612ce0565b604082019050919050565b60006020820190508181036000830152612d6b81612d2f565b9050919050565b7f4552433732313a207472616e7366657220746f20746865207a65726f2061646460008201527f7265737300000000000000000000000000000000000000000000000000000000602082015250565b6000612dce602483611f46565b9150612dd982612d72565b604082019050919050565b60006020820190508181036000830152612dfd81612dc1565b9050919050565b7f4552433732313a20617070726f766520746f2063616c6c657200000000000000600082015250565b6000612e3a601983611f46565b9150612e4582612e04565b602082019050919050565b60006020820190508181036000830152612e6981612e2d565b9050919050565b7f4552433732313a207472616e7366657220746f206e6f6e20455243373231526560008201527f63656976657220696d706c656d656e7465720000000000000000000000000000602082015250565b6000612ecc603283611f46565b9150612ed782612e70565b604082019050919050565b60006020820190508181036000830152612efb81612ebf565b9050919050565b7f4e487b7100000000000000000000000000000000000000000000000000000000600052601260045260246000fd5b6000612f3c82611fed565b9150612f4783611fed565b9250828203905081811115612f5f57612f5e612859565b5b92915050565b600081519050919050565b600082825260208201905092915050565b6000612f8c82612f65565b612f968185612f70565b9350612fa6818560208601611f57565b612faf81611f81565b840191505092915050565b6000608082019050612fcf6000830187612082565b612fdc6020830186612082565b612fe96040830185612118565b8181036060830152612ffb8184612f81565b905095945050505050565b60008151905061301581611eac565b92915050565b60006020828403121561303157613030611e76565b5b600061303f84828501613006565b91505092915050565b7f4552433732313a206d696e7420746f20746865207a65726f2061646472657373600082015250565b600061307e602083611f46565b915061308982613048565b602082019050919050565b600060208201905081810360008301526130ad81613071565b9050919050565b7f4552433732313a20746f6b656e20616c7265616479206d696e74656400000000600082015250565b60006130ea601c83611f46565b91506130f5826130b4565b602082019050919050565b60006020820190508181036000830152613119816130dd565b905091905056fea2646970667358221220abdcc15b6136ef1a66030b55a4d04aefdba15bb1813af5d22a0383afd2f41ceb64736f6c63430008110033","opcodes":"PUSH1 0x80 PUSH1 0x40 MSTORE CALLVALUE DUP1 ISZERO PUSH3 0x11 JUMPI PUSH1 0x0 DUP1 REVERT JUMPDEST POP PUSH1 0x40 MLOAD PUSH3 0x3758 CODESIZE SUB DUP1 PUSH3 0x3758 DUP4 CODECOPY DUP2 DUP2 ADD PUSH1 0x40 MSTORE DUP2 ADD SWAP1 PUSH3 0x37 SWAP2 SWAP1 PUSH3 0x23B JUMP JUMPDEST DUP2 DUP2 DUP2 PUSH1 0x0 SWAP1 DUP2 PUSH3 0x4A SWAP2 SWAP1 PUSH3 0x50B JUMP JUMPDEST POP DUP1 PUSH1 0x1 SWAP1 DUP2 PUSH3 0x5C SWAP2 SWAP1 PUSH3 0x50B JUMP JUMPDEST POP POP POP CALLER PUSH1 0x6 PUSH1 0x0 PUSH2 0x100 EXP DUP2 SLOAD DUP2 PUSH20 0xFFFFFFFFFFFFFFFFFFFFFFFFFFFFFFFFFFFFFFFF MUL NOT AND SWAP1 DUP4 PUSH20 0xFFFFFFFFFFFFFFFFFFFFFFFFFFFFFFFFFFFFFFFF AND MUL OR SWAP1 SSTORE POP POP POP PUSH3 0x5F2 JUMP JUMPDEST PUSH1 0x0 PUSH1 0x40 MLOAD SWAP1 POP SWAP1 JUMP JUMPDEST PUSH1 0x0 DUP1 REVERT JUMPDEST PUSH1 0x0 DUP1 REVERT JUMPDEST PUSH1 0x0 DUP1 REVERT JUMPDEST PUSH1 0x0 DUP1 REVERT JUMPDEST PUSH1 0x0 PUSH1 0x1F NOT PUSH1 0x1F DUP4 ADD AND SWAP1 POP SWAP2 SWAP1 POP JUMP JUMPDEST PUSH32 0x4E487B7100000000000000000000000000000000000000000000000000000000 PUSH1 0x0 MSTORE PUSH1 0x41 PUSH1 0x4 MSTORE PUSH1 0x24 PUSH1 0x0 REVERT JUMPDEST PUSH3 0x111 DUP3 PUSH3 0xC6 JUMP JUMPDEST DUP2 ADD DUP2 DUP2 LT PUSH8 0xFFFFFFFFFFFFFFFF DUP3 GT OR ISZERO PUSH3 0x133 JUMPI PUSH3 0x132 PUSH3 0xD7 JUMP JUMPDEST JUMPDEST DUP1 PUSH1 0x40 MSTORE POP POP POP JUMP JUMPDEST PUSH1 0x0 PUSH3 0x148 PUSH3 0xA8 JUMP JUMPDEST SWAP1 POP PUSH3 0x156 DUP3 DUP3 PUSH3 0x106 JUMP JUMPDEST SWAP2 SWAP1 POP JUMP JUMPDEST PUSH1 0x0 PUSH8 0xFFFFFFFFFFFFFFFF DUP3 GT ISZERO PUSH3 0x179 JUMPI PUSH3 0x178 PUSH3 0xD7 JUMP JUMPDEST JUMPDEST PUSH3 0x184 DUP3 PUSH3 0xC6 JUMP JUMPDEST SWAP1 POP PUSH1 0x20 DUP2 ADD SWAP1 POP SWAP2 SWAP1 POP JUMP JUMPDEST PUSH1 0x0 JUMPDEST DUP4 DUP2 LT ISZERO PUSH3 0x1B1 JUMPI DUP1 DUP3 ADD MLOAD DUP2 DUP5 ADD MSTORE PUSH1 0x20 DUP2 ADD SWAP1 POP PUSH3 0x194 JUMP JUMPDEST PUSH1 0x0 DUP5 DUP5 ADD MSTORE POP POP POP POP JUMP JUMPDEST PUSH1 0x0 PUSH3 0x1D4 PUSH3 0x1CE DUP5 PUSH3 0x15B JUMP JUMPDEST PUSH3 0x13C JUMP JUMPDEST SWAP1 POP DUP3 DUP2 MSTORE PUSH1 0x20 DUP2 ADD DUP5 DUP5 DUP5 ADD GT ISZERO PUSH3 0x1F3 JUMPI PUSH3 0x1F2 PUSH3 0xC1 JUMP JUMPDEST JUMPDEST PUSH3 0x200 DUP5 DUP3 DUP6 PUSH3 0x191 JUMP JUMPDEST POP SWAP4 SWAP3 POP POP POP JUMP JUMPDEST PUSH1 0x0 DUP3 PUSH1 0x1F DUP4 ADD SLT PUSH3 0x220 JUMPI PUSH3 0x21F PUSH3 0xBC JUMP JUMPDEST JUMPDEST DUP2 MLOAD PUSH3 0x232 DUP5 DUP3 PUSH1 0x20 DUP7 ADD PUSH3 0x1BD JUMP JUMPDEST SWAP2 POP POP SWAP3 SWAP2 POP POP JUMP JUMPDEST PUSH1 0x0 DUP1 PUSH1 0x40 DUP4 DUP6 SUB SLT ISZERO PUSH3 0x255 JUMPI PUSH3 0x254 PUSH3 0xB2 JUMP JUMPDEST JUMPDEST PUSH1 0x0 DUP4 ADD MLOAD PUSH8 0xFFFFFFFFFFFFFFFF DUP2 GT ISZERO PUSH3 0x276 JUMPI PUSH3 0x275 PUSH3 0xB7 JUMP JUMPDEST JUMPDEST PUSH3 0x284 DUP6 DUP3 DUP7 ADD PUSH3 0x208 JUMP JUMPDEST SWAP3 POP POP PUSH1 0x20 DUP4 ADD MLOAD PUSH8 0xFFFFFFFFFFFFFFFF DUP2 GT ISZERO PUSH3 0x2A8 JUMPI PUSH3 0x2A7 PUSH3 0xB7 JUMP JUMPDEST JUMPDEST PUSH3 0x2B6 DUP6 DUP3 DUP7 ADD PUSH3 0x208 JUMP JUMPDEST SWAP2 POP POP SWAP3 POP SWAP3 SWAP1 POP JUMP JUMPDEST PUSH1 0x0 DUP2 MLOAD SWAP1 POP SWAP2 SWAP1 POP JUMP JUMPDEST PUSH32 0x4E487B7100000000000000000000000000000000000000000000000000000000 PUSH1 0x0 MSTORE PUSH1 0x22 PUSH1 0x4 MSTORE PUSH1 0x24 PUSH1 0x0 REVERT JUMPDEST PUSH1 0x0 PUSH1 0x2 DUP3 DIV SWAP1 POP PUSH1 0x1 DUP3 AND DUP1 PUSH3 0x313 JUMPI PUSH1 0x7F DUP3 AND SWAP2 POP JUMPDEST PUSH1 0x20 DUP3 LT DUP2 SUB PUSH3 0x329 JUMPI PUSH3 0x328 PUSH3 0x2CB JUMP JUMPDEST JUMPDEST POP SWAP2 SWAP1 POP JUMP JUMPDEST PUSH1 0x0 DUP2 SWAP1 POP DUP2 PUSH1 0x0 MSTORE PUSH1 0x20 PUSH1 0x0 KECCAK256 SWAP1 POP SWAP2 SWAP1 POP JUMP JUMPDEST PUSH1 0x0 PUSH1 0x20 PUSH1 0x1F DUP4 ADD DIV SWAP1 POP SWAP2 SWAP1 POP JUMP JUMPDEST PUSH1 0x0 DUP3 DUP3 SHL SWAP1 POP SWAP3 SWAP2 POP POP JUMP JUMPDEST PUSH1 0x0 PUSH1 0x8 DUP4 MUL PUSH3 0x393 PUSH32 0xFFFFFFFFFFFFFFFFFFFFFFFFFFFFFFFFFFFFFFFFFFFFFFFFFFFFFFFFFFFFFFFF DUP3 PUSH3 0x354 JUMP JUMPDEST PUSH3 0x39F DUP7 DUP4 PUSH3 0x354 JUMP JUMPDEST SWAP6 POP DUP1 NOT DUP5 AND SWAP4 POP DUP1 DUP7 AND DUP5 OR SWAP3 POP POP POP SWAP4 SWAP3 POP POP POP JUMP JUMPDEST PUSH1 0x0 DUP2 SWAP1 POP SWAP2 SWAP1 POP JUMP JUMPDEST PUSH1 0x0 DUP2 SWAP1 POP SWAP2 SWAP1 POP JUMP JUMPDEST PUSH1 0x0 PUSH3 0x3EC PUSH3 0x3E6 PUSH3 0x3E0 DUP5 PUSH3 0x3B7 JUMP JUMPDEST PUSH3 0x3C1 JUMP JUMPDEST PUSH3 0x3B7 JUMP JUMPDEST SWAP1 POP SWAP2 SWAP1 POP JUMP JUMPDEST PUSH1 0x0 DUP2 SWAP1 POP SWAP2 SWAP1 POP JUMP JUMPDEST PUSH3 0x408 DUP4 PUSH3 0x3CB JUMP JUMPDEST PUSH3 0x420 PUSH3 0x417 DUP3 PUSH3 0x3F3 JUMP JUMPDEST DUP5 DUP5 SLOAD PUSH3 0x361 JUMP JUMPDEST DUP3 SSTORE POP POP POP POP JUMP JUMPDEST PUSH1 0x0 SWAP1 JUMP JUMPDEST PUSH3 0x437 PUSH3 0x428 JUMP JUMPDEST PUSH3 0x444 DUP2 DUP5 DUP5 PUSH3 0x3FD JUMP JUMPDEST POP POP POP JUMP JUMPDEST JUMPDEST DUP2 DUP2 LT ISZERO PUSH3 0x46C JUMPI PUSH3 0x460 PUSH1 0x0 DUP3 PUSH3 0x42D JUMP JUMPDEST PUSH1 0x1 DUP2 ADD SWAP1 POP PUSH3 0x44A JUMP JUMPDEST POP POP JUMP JUMPDEST PUSH1 0x1F DUP3 GT ISZERO PUSH3 0x4BB JUMPI PUSH3 0x485 DUP2 PUSH3 0x32F JUMP JUMPDEST PUSH3 0x490 DUP5 PUSH3 0x344 JUMP JUMPDEST DUP2 ADD PUSH1 0x20 DUP6 LT ISZERO PUSH3 0x4A0 JUMPI DUP2 SWAP1 POP JUMPDEST PUSH3 0x4B8 PUSH3 0x4AF DUP6 PUSH3 0x344 JUMP JUMPDEST DUP4 ADD DUP3 PUSH3 0x449 JUMP JUMPDEST POP POP JUMPDEST POP POP POP JUMP JUMPDEST PUSH1 0x0 DUP3 DUP3 SHR SWAP1 POP SWAP3 SWAP2 POP POP JUMP JUMPDEST PUSH1 0x0 PUSH3 0x4E0 PUSH1 0x0 NOT DUP5 PUSH1 0x8 MUL PUSH3 0x4C0 JUMP JUMPDEST NOT DUP1 DUP4 AND SWAP2 POP POP SWAP3 SWAP2 POP POP JUMP JUMPDEST PUSH1 0x0 PUSH3 0x4FB DUP4 DUP4 PUSH3 0x4CD JUMP JUMPDEST SWAP2 POP DUP3 PUSH1 0x2 MUL DUP3 OR SWAP1 POP SWAP3 SWAP2 POP POP JUMP JUMPDEST PUSH3 0x516 DUP3 PUSH3 0x2C0 JUMP JUMPDEST PUSH8 0xFFFFFFFFFFFFFFFF DUP2 GT ISZERO PUSH3 0x532 JUMPI PUSH3 0x531 PUSH3 0xD7 JUMP JUMPDEST JUMPDEST PUSH3 0x53E DUP3 SLOAD PUSH3 0x2FA JUMP JUMPDEST PUSH3 0x54B DUP3 DUP3 DUP6 PUSH3 0x470 JUMP JUMPDEST PUSH1 0x0 PUSH1 0x20 SWAP1 POP PUSH1 0x1F DUP4 GT PUSH1 0x1 DUP2 EQ PUSH3 0x583 JUMPI PUSH1 0x0 DUP5 ISZERO PUSH3 0x56E JUMPI DUP3 DUP8 ADD MLOAD SWAP1 POP JUMPDEST PUSH3 0x57A DUP6 DUP3 PUSH3 0x4ED JUMP JUMPDEST DUP7 SSTORE POP PUSH3 0x5EA JUMP JUMPDEST PUSH1 0x1F NOT DUP5 AND PUSH3 0x593 DUP7 PUSH3 0x32F JUMP JUMPDEST PUSH1 0x0 JUMPDEST DUP3 DUP2 LT ISZERO PUSH3 0x5BD JUMPI DUP5 DUP10 ADD MLOAD DUP3 SSTORE PUSH1 0x1 DUP3 ADD SWAP2 POP PUSH1 0x20 DUP6 ADD SWAP5 POP PUSH1 0x20 DUP2 ADD SWAP1 POP PUSH3 0x596 JUMP JUMPDEST DUP7 DUP4 LT ISZERO PUSH3 0x5DD JUMPI DUP5 DUP10 ADD MLOAD PUSH3 0x5D9 PUSH1 0x1F DUP10 AND DUP3 PUSH3 0x4CD JUMP JUMPDEST DUP4 SSTORE POP JUMPDEST PUSH1 0x1 PUSH1 0x2 DUP9 MUL ADD DUP9 SSTORE POP POP POP JUMPDEST POP POP POP POP POP POP JUMP JUMPDEST PUSH2 0x3156 DUP1 PUSH3 0x602 PUSH1 0x0 CODECOPY PUSH1 0x0 RETURN INVALID PUSH1 0x80 PUSH1 0x40 MSTORE PUSH1 0x4 CALLDATASIZE LT PUSH2 0x12A JUMPI PUSH1 0x0 CALLDATALOAD PUSH1 0xE0 SHR DUP1 PUSH4 0x4A878DFA GT PUSH2 0xAB JUMPI DUP1 PUSH4 0xA0712D68 GT PUSH2 0x6F JUMPI DUP1 PUSH4 0xA0712D68 EQ PUSH2 0x3F2 JUMPI DUP1 PUSH4 0xA22CB465 EQ PUSH2 0x40E JUMPI DUP1 PUSH4 0xB88D4FDE EQ PUSH2 0x437 JUMPI DUP1 PUSH4 0xC87B56DD EQ PUSH2 0x460 JUMPI DUP1 PUSH4 0xD5ABEB01 EQ PUSH2 0x49D JUMPI DUP1 PUSH4 0xE985E9C5 EQ PUSH2 0x4C8 JUMPI PUSH2 0x12A JUMP JUMPDEST DUP1 PUSH4 0x4A878DFA EQ PUSH2 0x2F9 JUMPI DUP1 PUSH4 0x6352211E EQ PUSH2 0x322 JUMPI DUP1 PUSH4 0x70A08231 EQ PUSH2 0x35F JUMPI DUP1 PUSH4 0x8DA5CB5B EQ PUSH2 0x39C JUMPI DUP1 PUSH4 0x95D89B41 EQ PUSH2 0x3C7 JUMPI PUSH2 0x12A JUMP JUMPDEST DUP1 PUSH4 0x18160DDD GT PUSH2 0xF2 JUMPI DUP1 PUSH4 0x18160DDD EQ PUSH2 0x228 JUMPI DUP1 PUSH4 0x1A7A98E2 EQ PUSH2 0x253 JUMPI DUP1 PUSH4 0x23B872DD EQ PUSH2 0x290 JUMPI DUP1 PUSH4 0x3CCFD60B EQ PUSH2 0x2B9 JUMPI DUP1 PUSH4 0x42842E0E EQ PUSH2 0x2D0 JUMPI PUSH2 0x12A JUMP JUMPDEST DUP1 PUSH4 0x1FFC9A7 EQ PUSH2 0x12F JUMPI DUP1 PUSH4 0x6FDDE03 EQ PUSH2 0x16C JUMPI DUP1 PUSH4 0x81812FC EQ PUSH2 0x197 JUMPI DUP1 PUSH4 0x95EA7B3 EQ PUSH2 0x1D4 JUMPI DUP1 PUSH4 0x12065FE0 EQ PUSH2 0x1FD JUMPI JUMPDEST PUSH1 0x0 DUP1 REVERT JUMPDEST CALLVALUE DUP1 ISZERO PUSH2 0x13B JUMPI PUSH1 0x0 DUP1 REVERT JUMPDEST POP PUSH2 0x156 PUSH1 0x4 DUP1 CALLDATASIZE SUB DUP2 ADD SWAP1 PUSH2 0x151 SWAP2 SWAP1 PUSH2 0x1ED8 JUMP JUMPDEST PUSH2 0x505 JUMP JUMPDEST PUSH1 0x40 MLOAD PUSH2 0x163 SWAP2 SWAP1 PUSH2 0x1F20 JUMP JUMPDEST PUSH1 0x40 MLOAD DUP1 SWAP2 SUB SWAP1 RETURN JUMPDEST CALLVALUE DUP1 ISZERO PUSH2 0x178 JUMPI PUSH1 0x0 DUP1 REVERT JUMPDEST POP PUSH2 0x181 PUSH2 0x5E7 JUMP JUMPDEST PUSH1 0x40 MLOAD PUSH2 0x18E SWAP2 SWAP1 PUSH2 0x1FCB JUMP JUMPDEST PUSH1 0x40 MLOAD DUP1 SWAP2 SUB SWAP1 RETURN JUMPDEST CALLVALUE DUP1 ISZERO PUSH2 0x1A3 JUMPI PUSH1 0x0 DUP1 REVERT JUMPDEST POP PUSH2 0x1BE PUSH1 0x4 DUP1 CALLDATASIZE SUB DUP2 ADD SWAP1 PUSH2 0x1B9 SWAP2 SWAP1 PUSH2 0x2023 JUMP JUMPDEST PUSH2 0x679 JUMP JUMPDEST PUSH1 0x40 MLOAD PUSH2 0x1CB SWAP2 SWAP1 PUSH2 0x2091 JUMP JUMPDEST PUSH1 0x40 MLOAD DUP1 SWAP2 SUB SWAP1 RETURN JUMPDEST CALLVALUE DUP1 ISZERO PUSH2 0x1E0 JUMPI PUSH1 0x0 DUP1 REVERT JUMPDEST POP PUSH2 0x1FB PUSH1 0x4 DUP1 CALLDATASIZE SUB DUP2 ADD SWAP1 PUSH2 0x1F6 SWAP2 SWAP1 PUSH2 0x20D8 JUMP JUMPDEST PUSH2 0x6BF JUMP JUMPDEST STOP JUMPDEST CALLVALUE DUP1 ISZERO PUSH2 0x209 JUMPI PUSH1 0x0 DUP1 REVERT JUMPDEST POP PUSH2 0x212 PUSH2 0x7D6 JUMP JUMPDEST PUSH1 0x40 MLOAD PUSH2 0x21F SWAP2 SWAP1 PUSH2 0x2127 JUMP JUMPDEST PUSH1 0x40 MLOAD DUP1 SWAP2 SUB SWAP1 RETURN JUMPDEST CALLVALUE DUP1 ISZERO PUSH2 0x234 JUMPI PUSH1 0x0 DUP1 REVERT JUMPDEST POP PUSH2 0x23D PUSH2 0x7DE JUMP JUMPDEST PUSH1 0x40 MLOAD PUSH2 0x24A SWAP2 SWAP1 PUSH2 0x2127 JUMP JUMPDEST PUSH1 0x40 MLOAD DUP1 SWAP2 SUB SWAP1 RETURN JUMPDEST CALLVALUE DUP1 ISZERO PUSH2 0x25F JUMPI PUSH1 0x0 DUP1 REVERT JUMPDEST POP PUSH2 0x27A PUSH1 0x4 DUP1 CALLDATASIZE SUB DUP2 ADD SWAP1 PUSH2 0x275 SWAP2 SWAP1 PUSH2 0x2023 JUMP JUMPDEST PUSH2 0x7E4 JUMP JUMPDEST PUSH1 0x40 MLOAD PUSH2 0x287 SWAP2 SWAP1 PUSH2 0x21FA JUMP JUMPDEST PUSH1 0x40 MLOAD DUP1 SWAP2 SUB SWAP1 RETURN JUMPDEST CALLVALUE DUP1 ISZERO PUSH2 0x29C JUMPI PUSH1 0x0 DUP1 REVERT JUMPDEST POP PUSH2 0x2B7 PUSH1 0x4 DUP1 CALLDATASIZE SUB DUP2 ADD SWAP1 PUSH2 0x2B2 SWAP2 SWAP1 PUSH2 0x221C JUMP JUMPDEST PUSH2 0x8C8 JUMP JUMPDEST STOP JUMPDEST CALLVALUE DUP1 ISZERO PUSH2 0x2C5 JUMPI PUSH1 0x0 DUP1 REVERT JUMPDEST POP PUSH2 0x2CE PUSH2 0x928 JUMP JUMPDEST STOP JUMPDEST CALLVALUE DUP1 ISZERO PUSH2 0x2DC JUMPI PUSH1 0x0 DUP1 REVERT JUMPDEST POP PUSH2 0x2F7 PUSH1 0x4 DUP1 CALLDATASIZE SUB DUP2 ADD SWAP1 PUSH2 0x2F2 SWAP2 SWAP1 PUSH2 0x221C JUMP JUMPDEST PUSH2 0xA1D JUMP JUMPDEST STOP JUMPDEST CALLVALUE DUP1 ISZERO PUSH2 0x305 JUMPI PUSH1 0x0 DUP1 REVERT JUMPDEST POP PUSH2 0x320 PUSH1 0x4 DUP1 CALLDATASIZE SUB DUP2 ADD SWAP1 PUSH2 0x31B SWAP2 SWAP1 PUSH2 0x23A4 JUMP JUMPDEST PUSH2 0xA3D JUMP JUMPDEST STOP JUMPDEST CALLVALUE DUP1 ISZERO PUSH2 0x32E JUMPI PUSH1 0x0 DUP1 REVERT JUMPDEST POP PUSH2 0x349 PUSH1 0x4 DUP1 CALLDATASIZE SUB DUP2 ADD SWAP1 PUSH2 0x344 SWAP2 SWAP1 PUSH2 0x2023 JUMP JUMPDEST PUSH2 0xB26 JUMP JUMPDEST PUSH1 0x40 MLOAD PUSH2 0x356 SWAP2 SWAP1 PUSH2 0x2091 JUMP JUMPDEST PUSH1 0x40 MLOAD DUP1 SWAP2 SUB SWAP1 RETURN JUMPDEST CALLVALUE DUP1 ISZERO PUSH2 0x36B JUMPI PUSH1 0x0 DUP1 REVERT JUMPDEST POP PUSH2 0x386 PUSH1 0x4 DUP1 CALLDATASIZE SUB DUP2 ADD SWAP1 PUSH2 0x381 SWAP2 SWAP1 PUSH2 0x2400 JUMP JUMPDEST PUSH2 0xBAC JUMP JUMPDEST PUSH1 0x40 MLOAD PUSH2 0x393 SWAP2 SWAP1 PUSH2 0x2127 JUMP JUMPDEST PUSH1 0x40 MLOAD DUP1 SWAP2 SUB SWAP1 RETURN JUMPDEST CALLVALUE DUP1 ISZERO PUSH2 0x3A8 JUMPI PUSH1 0x0 DUP1 REVERT JUMPDEST POP PUSH2 0x3B1 PUSH2 0xC63 JUMP JUMPDEST PUSH1 0x40 MLOAD PUSH2 0x3BE SWAP2 SWAP1 PUSH2 0x2091 JUMP JUMPDEST PUSH1 0x40 MLOAD DUP1 SWAP2 SUB SWAP1 RETURN JUMPDEST CALLVALUE DUP1 ISZERO PUSH2 0x3D3 JUMPI PUSH1 0x0 DUP1 REVERT JUMPDEST POP PUSH2 0x3DC PUSH2 0xC89 JUMP JUMPDEST PUSH1 0x40 MLOAD PUSH2 0x3E9 SWAP2 SWAP1 PUSH2 0x1FCB JUMP JUMPDEST PUSH1 0x40 MLOAD DUP1 SWAP2 SUB SWAP1 RETURN JUMPDEST PUSH2 0x40C PUSH1 0x4 DUP1 CALLDATASIZE SUB DUP2 ADD SWAP1 PUSH2 0x407 SWAP2 SWAP1 PUSH2 0x2023 JUMP JUMPDEST PUSH2 0xD1B JUMP JUMPDEST STOP JUMPDEST CALLVALUE DUP1 ISZERO PUSH2 0x41A JUMPI PUSH1 0x0 DUP1 REVERT JUMPDEST POP PUSH2 0x435 PUSH1 0x4 DUP1 CALLDATASIZE SUB DUP2 ADD SWAP1 PUSH2 0x430 SWAP2 SWAP1 PUSH2 0x2459 JUMP JUMPDEST PUSH2 0xDE1 JUMP JUMPDEST STOP JUMPDEST CALLVALUE DUP1 ISZERO PUSH2 0x443 JUMPI PUSH1 0x0 DUP1 REVERT JUMPDEST POP PUSH2 0x45E PUSH1 0x4 DUP1 CALLDATASIZE SUB DUP2 ADD SWAP1 PUSH2 0x459 SWAP2 SWAP1 PUSH2 0x253A JUMP JUMPDEST PUSH2 0xDF7 JUMP JUMPDEST STOP JUMPDEST CALLVALUE DUP1 ISZERO PUSH2 0x46C JUMPI PUSH1 0x0 DUP1 REVERT JUMPDEST POP PUSH2 0x487 PUSH1 0x4 DUP1 CALLDATASIZE SUB DUP2 ADD SWAP1 PUSH2 0x482 SWAP2 SWAP1 PUSH2 0x2023 JUMP JUMPDEST PUSH2 0xE59 JUMP JUMPDEST PUSH1 0x40 MLOAD PUSH2 0x494 SWAP2 SWAP1 PUSH2 0x1FCB JUMP JUMPDEST PUSH1 0x40 MLOAD DUP1 SWAP2 SUB SWAP1 RETURN JUMPDEST CALLVALUE DUP1 ISZERO PUSH2 0x4A9 JUMPI PUSH1 0x0 DUP1 REVERT JUMPDEST POP PUSH2 0x4B2 PUSH2 0xEC1 JUMP JUMPDEST PUSH1 0x40 MLOAD PUSH2 0x4BF SWAP2 SWAP1 PUSH2 0x2127 JUMP JUMPDEST PUSH1 0x40 MLOAD DUP1 SWAP2 SUB SWAP1 RETURN JUMPDEST CALLVALUE DUP1 ISZERO PUSH2 0x4D4 JUMPI PUSH1 0x0 DUP1 REVERT JUMPDEST POP PUSH2 0x4EF PUSH1 0x4 DUP1 CALLDATASIZE SUB DUP2 ADD SWAP1 PUSH2 0x4EA SWAP2 SWAP1 PUSH2 0x25BD JUMP JUMPDEST PUSH2 0xEC7 JUMP JUMPDEST PUSH1 0x40 MLOAD PUSH2 0x4FC SWAP2 SWAP1 PUSH2 0x1F20 JUMP JUMPDEST PUSH1 0x40 MLOAD DUP1 SWAP2 SUB SWAP1 RETURN JUMPDEST PUSH1 0x0 PUSH32 0x80AC58CD00000000000000000000000000000000000000000000000000000000 PUSH28 0xFFFFFFFFFFFFFFFFFFFFFFFFFFFFFFFFFFFFFFFFFFFFFFFFFFFFFFFF NOT AND DUP3 PUSH28 0xFFFFFFFFFFFFFFFFFFFFFFFFFFFFFFFFFFFFFFFFFFFFFFFFFFFFFFFF NOT AND EQ DUP1 PUSH2 0x5D0 JUMPI POP PUSH32 0x5B5E139F00000000000000000000000000000000000000000000000000000000 PUSH28 0xFFFFFFFFFFFFFFFFFFFFFFFFFFFFFFFFFFFFFFFFFFFFFFFFFFFFFFFF NOT AND DUP3 PUSH28 0xFFFFFFFFFFFFFFFFFFFFFFFFFFFFFFFFFFFFFFFFFFFFFFFFFFFFFFFF NOT AND EQ JUMPDEST DUP1 PUSH2 0x5E0 JUMPI POP PUSH2 0x5DF DUP3 PUSH2 0xF5B JUMP JUMPDEST JUMPDEST SWAP1 POP SWAP2 SWAP1 POP JUMP JUMPDEST PUSH1 0x60 PUSH1 0x0 DUP1 SLOAD PUSH2 0x5F6 SWAP1 PUSH2 0x262C JUMP JUMPDEST DUP1 PUSH1 0x1F ADD PUSH1 0x20 DUP1 SWAP2 DIV MUL PUSH1 0x20 ADD PUSH1 0x40 MLOAD SWAP1 DUP2 ADD PUSH1 0x40 MSTORE DUP1 SWAP3 SWAP2 SWAP1 DUP2 DUP2 MSTORE PUSH1 0x20 ADD DUP3 DUP1 SLOAD PUSH2 0x622 SWAP1 PUSH2 0x262C JUMP JUMPDEST DUP1 ISZERO PUSH2 0x66F JUMPI DUP1 PUSH1 0x1F LT PUSH2 0x644 JUMPI PUSH2 0x100 DUP1 DUP4 SLOAD DIV MUL DUP4 MSTORE SWAP2 PUSH1 0x20 ADD SWAP2 PUSH2 0x66F JUMP JUMPDEST DUP3 ADD SWAP2 SWAP1 PUSH1 0x0 MSTORE PUSH1 0x20 PUSH1 0x0 KECCAK256 SWAP1 JUMPDEST DUP2 SLOAD DUP2 MSTORE SWAP1 PUSH1 0x1 ADD SWAP1 PUSH1 0x20 ADD DUP1 DUP4 GT PUSH2 0x652 JUMPI DUP3 SWAP1 SUB PUSH1 0x1F AND DUP3 ADD SWAP2 JUMPDEST POP POP POP POP POP SWAP1 POP SWAP1 JUMP JUMPDEST PUSH1 0x0 PUSH2 0x684 DUP3 PUSH2 0xFC5 JUMP JUMPDEST PUSH1 0x4 PUSH1 0x0 DUP4 DUP2 MSTORE PUSH1 0x20 ADD SWAP1 DUP2 MSTORE PUSH1 0x20 ADD PUSH1 0x0 KECCAK256 PUSH1 0x0 SWAP1 SLOAD SWAP1 PUSH2 0x100 EXP SWAP1 DIV PUSH20 0xFFFFFFFFFFFFFFFFFFFFFFFFFFFFFFFFFFFFFFFF AND SWAP1 POP SWAP2 SWAP1 POP JUMP JUMPDEST PUSH1 0x0 PUSH2 0x6CA DUP3 PUSH2 0xB26 JUMP JUMPDEST SWAP1 POP DUP1 PUSH20 0xFFFFFFFFFFFFFFFFFFFFFFFFFFFFFFFFFFFFFFFF AND DUP4 PUSH20 0xFFFFFFFFFFFFFFFFFFFFFFFFFFFFFFFFFFFFFFFF AND SUB PUSH2 0x73A JUMPI PUSH1 0x40 MLOAD PUSH32 0x8C379A000000000000000000000000000000000000000000000000000000000 DUP2 MSTORE PUSH1 0x4 ADD PUSH2 0x731 SWAP1 PUSH2 0x26CF JUMP JUMPDEST PUSH1 0x40 MLOAD DUP1 SWAP2 SUB SWAP1 REVERT JUMPDEST DUP1 PUSH20 0xFFFFFFFFFFFFFFFFFFFFFFFFFFFFFFFFFFFFFFFF AND PUSH2 0x759 PUSH2 0x1010 JUMP JUMPDEST PUSH20 0xFFFFFFFFFFFFFFFFFFFFFFFFFFFFFFFFFFFFFFFF AND EQ DUP1 PUSH2 0x788 JUMPI POP PUSH2 0x787 DUP2 PUSH2 0x782 PUSH2 0x1010 JUMP JUMPDEST PUSH2 0xEC7 JUMP JUMPDEST JUMPDEST PUSH2 0x7C7 JUMPI PUSH1 0x40 MLOAD PUSH32 0x8C379A000000000000000000000000000000000000000000000000000000000 DUP2 MSTORE PUSH1 0x4 ADD PUSH2 0x7BE SWAP1 PUSH2 0x2761 JUMP JUMPDEST PUSH1 0x40 MLOAD DUP1 SWAP2 SUB SWAP1 REVERT JUMPDEST PUSH2 0x7D1 DUP4 DUP4 PUSH2 0x1018 JUMP JUMPDEST POP POP POP JUMP JUMPDEST PUSH1 0x0 SELFBALANCE SWAP1 POP SWAP1 JUMP JUMPDEST PUSH1 0x8 SLOAD DUP2 JUMP JUMPDEST PUSH2 0x7EC PUSH2 0x1E49 JUMP JUMPDEST PUSH1 0x9 PUSH1 0x0 DUP4 DUP2 MSTORE PUSH1 0x20 ADD SWAP1 DUP2 MSTORE PUSH1 0x20 ADD PUSH1 0x0 KECCAK256 PUSH1 0x40 MLOAD DUP1 PUSH1 0x60 ADD PUSH1 0x40 MSTORE SWAP1 DUP2 PUSH1 0x0 DUP3 ADD DUP1 SLOAD PUSH2 0x81A SWAP1 PUSH2 0x262C JUMP JUMPDEST DUP1 PUSH1 0x1F ADD PUSH1 0x20 DUP1 SWAP2 DIV MUL PUSH1 0x20 ADD PUSH1 0x40 MLOAD SWAP1 DUP2 ADD PUSH1 0x40 MSTORE DUP1 SWAP3 SWAP2 SWAP1 DUP2 DUP2 MSTORE PUSH1 0x20 ADD DUP3 DUP1 SLOAD PUSH2 0x846 SWAP1 PUSH2 0x262C JUMP JUMPDEST DUP1 ISZERO PUSH2 0x893 JUMPI DUP1 PUSH1 0x1F LT PUSH2 0x868 JUMPI PUSH2 0x100 DUP1 DUP4 SLOAD DIV MUL DUP4 MSTORE SWAP2 PUSH1 0x20 ADD SWAP2 PUSH2 0x893 JUMP JUMPDEST DUP3 ADD SWAP2 SWAP1 PUSH1 0x0 MSTORE PUSH1 0x20 PUSH1 0x0 KECCAK256 SWAP1 JUMPDEST DUP2 SLOAD DUP2 MSTORE SWAP1 PUSH1 0x1 ADD SWAP1 PUSH1 0x20 ADD DUP1 DUP4 GT PUSH2 0x876 JUMPI DUP3 SWAP1 SUB PUSH1 0x1F AND DUP3 ADD SWAP2 JUMPDEST POP POP POP POP POP DUP2 MSTORE PUSH1 0x20 ADD PUSH1 0x1 DUP3 ADD SLOAD DUP2 MSTORE PUSH1 0x20 ADD PUSH1 0x2 DUP3 ADD PUSH1 0x0 SWAP1 SLOAD SWAP1 PUSH2 0x100 EXP SWAP1 DIV PUSH1 0xFF AND ISZERO ISZERO ISZERO ISZERO DUP2 MSTORE POP POP SWAP1 POP SWAP2 SWAP1 POP JUMP JUMPDEST PUSH2 0x8D9 PUSH2 0x8D3 PUSH2 0x1010 JUMP JUMPDEST DUP3 PUSH2 0x10D1 JUMP JUMPDEST PUSH2 0x918 JUMPI PUSH1 0x40 MLOAD PUSH32 0x8C379A000000000000000000000000000000000000000000000000000000000 DUP2 MSTORE PUSH1 0x4 ADD PUSH2 0x90F SWAP1 PUSH2 0x27F3 JUMP JUMPDEST PUSH1 0x40 MLOAD DUP1 SWAP2 SUB SWAP1 REVERT JUMPDEST PUSH2 0x923 DUP4 DUP4 DUP4 PUSH2 0x1166 JUMP JUMPDEST POP POP POP JUMP JUMPDEST PUSH1 0x6 PUSH1 0x0 SWAP1 SLOAD SWAP1 PUSH2 0x100 EXP SWAP1 DIV PUSH20 0xFFFFFFFFFFFFFFFFFFFFFFFFFFFFFFFFFFFFFFFF AND PUSH20 0xFFFFFFFFFFFFFFFFFFFFFFFFFFFFFFFFFFFFFFFF AND CALLER PUSH20 0xFFFFFFFFFFFFFFFFFFFFFFFFFFFFFFFFFFFFFFFF AND EQ PUSH2 0x982 JUMPI PUSH1 0x0 DUP1 REVERT JUMPDEST PUSH1 0x0 PUSH1 0x6 PUSH1 0x0 SWAP1 SLOAD SWAP1 PUSH2 0x100 EXP SWAP1 DIV PUSH20 0xFFFFFFFFFFFFFFFFFFFFFFFFFFFFFFFFFFFFFFFF AND PUSH20 0xFFFFFFFFFFFFFFFFFFFFFFFFFFFFFFFFFFFFFFFF AND SELFBALANCE PUSH1 0x40 MLOAD PUSH2 0x9CA SWAP1 PUSH2 0x2844 JUMP JUMPDEST PUSH1 0x0 PUSH1 0x40 MLOAD DUP1 DUP4 SUB DUP2 DUP6 DUP8 GAS CALL SWAP3 POP POP POP RETURNDATASIZE DUP1 PUSH1 0x0 DUP2 EQ PUSH2 0xA07 JUMPI PUSH1 0x40 MLOAD SWAP2 POP PUSH1 0x1F NOT PUSH1 0x3F RETURNDATASIZE ADD AND DUP3 ADD PUSH1 0x40 MSTORE RETURNDATASIZE DUP3 MSTORE RETURNDATASIZE PUSH1 0x0 PUSH1 0x20 DUP5 ADD RETURNDATACOPY PUSH2 0xA0C JUMP JUMPDEST PUSH1 0x60 SWAP2 POP JUMPDEST POP POP SWAP1 POP DUP1 PUSH2 0xA1A JUMPI PUSH1 0x0 DUP1 REVERT JUMPDEST POP JUMP JUMPDEST PUSH2 0xA38 DUP4 DUP4 DUP4 PUSH1 0x40 MLOAD DUP1 PUSH1 0x20 ADD PUSH1 0x40 MSTORE DUP1 PUSH1 0x0 DUP2 MSTORE POP PUSH2 0xDF7 JUMP JUMPDEST POP POP POP JUMP JUMPDEST PUSH1 0x6 PUSH1 0x0 SWAP1 SLOAD SWAP1 PUSH2 0x100 EXP SWAP1 DIV PUSH20 0xFFFFFFFFFFFFFFFFFFFFFFFFFFFFFFFFFFFFFFFF AND PUSH20 0xFFFFFFFFFFFFFFFFFFFFFFFFFFFFFFFFFFFFFFFF AND CALLER PUSH20 0xFFFFFFFFFFFFFFFFFFFFFFFFFFFFFFFFFFFFFFFF AND EQ PUSH2 0xA97 JUMPI PUSH1 0x0 DUP1 REVERT JUMPDEST PUSH1 0x1 PUSH1 0x7 SLOAD PUSH2 0xAA6 SWAP2 SWAP1 PUSH2 0x2888 JUMP JUMPDEST PUSH1 0x7 DUP2 SWAP1 SSTORE POP PUSH1 0x40 MLOAD DUP1 PUSH1 0x60 ADD PUSH1 0x40 MSTORE DUP1 DUP4 DUP2 MSTORE PUSH1 0x20 ADD DUP3 DUP2 MSTORE PUSH1 0x20 ADD PUSH1 0x0 ISZERO ISZERO DUP2 MSTORE POP PUSH1 0x9 PUSH1 0x0 PUSH1 0x7 SLOAD DUP2 MSTORE PUSH1 0x20 ADD SWAP1 DUP2 MSTORE PUSH1 0x20 ADD PUSH1 0x0 KECCAK256 PUSH1 0x0 DUP3 ADD MLOAD DUP2 PUSH1 0x0 ADD SWAP1 DUP2 PUSH2 0xAF4 SWAP2 SWAP1 PUSH2 0x2A68 JUMP JUMPDEST POP PUSH1 0x20 DUP3 ADD MLOAD DUP2 PUSH1 0x1 ADD SSTORE PUSH1 0x40 DUP3 ADD MLOAD DUP2 PUSH1 0x2 ADD PUSH1 0x0 PUSH2 0x100 EXP DUP2 SLOAD DUP2 PUSH1 0xFF MUL NOT AND SWAP1 DUP4 ISZERO ISZERO MUL OR SWAP1 SSTORE POP SWAP1 POP POP POP POP JUMP JUMPDEST PUSH1 0x0 DUP1 PUSH2 0xB32 DUP4 PUSH2 0x145F JUMP JUMPDEST SWAP1 POP PUSH1 0x0 PUSH20 0xFFFFFFFFFFFFFFFFFFFFFFFFFFFFFFFFFFFFFFFF AND DUP2 PUSH20 0xFFFFFFFFFFFFFFFFFFFFFFFFFFFFFFFFFFFFFFFF AND SUB PUSH2 0xBA3 JUMPI PUSH1 0x40 MLOAD PUSH32 0x8C379A000000000000000000000000000000000000000000000000000000000 DUP2 MSTORE PUSH1 0x4 ADD PUSH2 0xB9A SWAP1 PUSH2 0x2B86 JUMP JUMPDEST PUSH1 0x40 MLOAD DUP1 SWAP2 SUB SWAP1 REVERT JUMPDEST DUP1 SWAP2 POP POP SWAP2 SWAP1 POP JUMP JUMPDEST PUSH1 0x0 DUP1 PUSH20 0xFFFFFFFFFFFFFFFFFFFFFFFFFFFFFFFFFFFFFFFF AND DUP3 PUSH20 0xFFFFFFFFFFFFFFFFFFFFFFFFFFFFFFFFFFFFFFFF AND SUB PUSH2 0xC1C JUMPI PUSH1 0x40 MLOAD PUSH32 0x8C379A000000000000000000000000000000000000000000000000000000000 DUP2 MSTORE PUSH1 0x4 ADD PUSH2 0xC13 SWAP1 PUSH2 0x2C18 JUMP JUMPDEST PUSH1 0x40 MLOAD DUP1 SWAP2 SUB SWAP1 REVERT JUMPDEST PUSH1 0x3 PUSH1 0x0 DUP4 PUSH20 0xFFFFFFFFFFFFFFFFFFFFFFFFFFFFFFFFFFFFFFFF AND PUSH20 0xFFFFFFFFFFFFFFFFFFFFFFFFFFFFFFFFFFFFFFFF AND DUP2 MSTORE PUSH1 0x20 ADD SWAP1 DUP2 MSTORE PUSH1 0x20 ADD PUSH1 0x0 KECCAK256 SLOAD SWAP1 POP SWAP2 SWAP1 POP JUMP JUMPDEST PUSH1 0x6 PUSH1 0x0 SWAP1 SLOAD SWAP1 PUSH2 0x100 EXP SWAP1 DIV PUSH20 0xFFFFFFFFFFFFFFFFFFFFFFFFFFFFFFFFFFFFFFFF AND DUP2 JUMP JUMPDEST PUSH1 0x60 PUSH1 0x1 DUP1 SLOAD PUSH2 0xC98 SWAP1 PUSH2 0x262C JUMP JUMPDEST DUP1 PUSH1 0x1F ADD PUSH1 0x20 DUP1 SWAP2 DIV MUL PUSH1 0x20 ADD PUSH1 0x40 MLOAD SWAP1 DUP2 ADD PUSH1 0x40 MSTORE DUP1 SWAP3 SWAP2 SWAP1 DUP2 DUP2 MSTORE PUSH1 0x20 ADD DUP3 DUP1 SLOAD PUSH2 0xCC4 SWAP1 PUSH2 0x262C JUMP JUMPDEST DUP1 ISZERO PUSH2 0xD11 JUMPI DUP1 PUSH1 0x1F LT PUSH2 0xCE6 JUMPI PUSH2 0x100 DUP1 DUP4 SLOAD DIV MUL DUP4 MSTORE SWAP2 PUSH1 0x20 ADD SWAP2 PUSH2 0xD11 JUMP JUMPDEST DUP3 ADD SWAP2 SWAP1 PUSH1 0x0 MSTORE PUSH1 0x20 PUSH1 0x0 KECCAK256 SWAP1 JUMPDEST DUP2 SLOAD DUP2 MSTORE SWAP1 PUSH1 0x1 ADD SWAP1 PUSH1 0x20 ADD DUP1 DUP4 GT PUSH2 0xCF4 JUMPI DUP3 SWAP1 SUB PUSH1 0x1F AND DUP3 ADD SWAP2 JUMPDEST POP POP POP POP POP SWAP1 POP SWAP1 JUMP JUMPDEST PUSH1 0x0 DUP2 SUB PUSH2 0xD28 JUMPI PUSH1 0x0 DUP1 REVERT JUMPDEST PUSH1 0x7 SLOAD DUP2 GT ISZERO PUSH2 0xD37 JUMPI PUSH1 0x0 DUP1 REVERT JUMPDEST PUSH1 0x0 ISZERO ISZERO PUSH1 0x9 PUSH1 0x0 DUP4 DUP2 MSTORE PUSH1 0x20 ADD SWAP1 DUP2 MSTORE PUSH1 0x20 ADD PUSH1 0x0 KECCAK256 PUSH1 0x2 ADD PUSH1 0x0 SWAP1 SLOAD SWAP1 PUSH2 0x100 EXP SWAP1 DIV PUSH1 0xFF AND ISZERO ISZERO EQ PUSH2 0xD6B JUMPI PUSH1 0x0 DUP1 REVERT JUMPDEST PUSH1 0x9 PUSH1 0x0 DUP3 DUP2 MSTORE PUSH1 0x20 ADD SWAP1 DUP2 MSTORE PUSH1 0x20 ADD PUSH1 0x0 KECCAK256 PUSH1 0x1 ADD SLOAD CALLVALUE EQ PUSH2 0xD8D JUMPI PUSH1 0x0 DUP1 REVERT JUMPDEST PUSH1 0x1 PUSH1 0x9 PUSH1 0x0 DUP4 DUP2 MSTORE PUSH1 0x20 ADD SWAP1 DUP2 MSTORE PUSH1 0x20 ADD PUSH1 0x0 KECCAK256 PUSH1 0x2 ADD PUSH1 0x0 PUSH2 0x100 EXP DUP2 SLOAD DUP2 PUSH1 0xFF MUL NOT AND SWAP1 DUP4 ISZERO ISZERO MUL OR SWAP1 SSTORE POP PUSH1 0x8 PUSH1 0x0 DUP2 SLOAD DUP1 SWAP3 SWAP2 SWAP1 PUSH2 0xDCF SWAP1 PUSH2 0x2C38 JUMP JUMPDEST SWAP2 SWAP1 POP SSTORE POP PUSH2 0xDDE CALLER DUP3 PUSH2 0x149C JUMP JUMPDEST POP JUMP JUMPDEST PUSH2 0xDF3 PUSH2 0xDEC PUSH2 0x1010 JUMP JUMPDEST DUP4 DUP4 PUSH2 0x14BA JUMP JUMPDEST POP POP JUMP JUMPDEST PUSH2 0xE08 PUSH2 0xE02 PUSH2 0x1010 JUMP JUMPDEST DUP4 PUSH2 0x10D1 JUMP JUMPDEST PUSH2 0xE47 JUMPI PUSH1 0x40 MLOAD PUSH32 0x8C379A000000000000000000000000000000000000000000000000000000000 DUP2 MSTORE PUSH1 0x4 ADD PUSH2 0xE3E SWAP1 PUSH2 0x27F3 JUMP JUMPDEST PUSH1 0x40 MLOAD DUP1 SWAP2 SUB SWAP1 REVERT JUMPDEST PUSH2 0xE53 DUP5 DUP5 DUP5 DUP5 PUSH2 0x1626 JUMP JUMPDEST POP POP POP POP JUMP JUMPDEST PUSH1 0x60 PUSH2 0xE64 DUP3 PUSH2 0xFC5 JUMP JUMPDEST PUSH1 0x0 PUSH2 0xE6E PUSH2 0x1682 JUMP JUMPDEST SWAP1 POP PUSH1 0x0 DUP2 MLOAD GT PUSH2 0xE8E JUMPI PUSH1 0x40 MLOAD DUP1 PUSH1 0x20 ADD PUSH1 0x40 MSTORE DUP1 PUSH1 0x0 DUP2 MSTORE POP PUSH2 0xEB9 JUMP JUMPDEST DUP1 PUSH2 0xE98 DUP5 PUSH2 0x1699 JUMP JUMPDEST PUSH1 0x40 MLOAD PUSH1 0x20 ADD PUSH2 0xEA9 SWAP3 SWAP2 SWAP1 PUSH2 0x2CBC JUMP JUMPDEST PUSH1 0x40 MLOAD PUSH1 0x20 DUP2 DUP4 SUB SUB DUP2 MSTORE SWAP1 PUSH1 0x40 MSTORE JUMPDEST SWAP2 POP POP SWAP2 SWAP1 POP JUMP JUMPDEST PUSH1 0x7 SLOAD DUP2 JUMP JUMPDEST PUSH1 0x0 PUSH1 0x5 PUSH1 0x0 DUP5 PUSH20 0xFFFFFFFFFFFFFFFFFFFFFFFFFFFFFFFFFFFFFFFF AND PUSH20 0xFFFFFFFFFFFFFFFFFFFFFFFFFFFFFFFFFFFFFFFF AND DUP2 MSTORE PUSH1 0x20 ADD SWAP1 DUP2 MSTORE PUSH1 0x20 ADD PUSH1 0x0 KECCAK256 PUSH1 0x0 DUP4 PUSH20 0xFFFFFFFFFFFFFFFFFFFFFFFFFFFFFFFFFFFFFFFF AND PUSH20 0xFFFFFFFFFFFFFFFFFFFFFFFFFFFFFFFFFFFFFFFF AND DUP2 MSTORE PUSH1 0x20 ADD SWAP1 DUP2 MSTORE PUSH1 0x20 ADD PUSH1 0x0 KECCAK256 PUSH1 0x0 SWAP1 SLOAD SWAP1 PUSH2 0x100 EXP SWAP1 DIV PUSH1 0xFF AND SWAP1 POP SWAP3 SWAP2 POP POP JUMP JUMPDEST PUSH1 0x0 PUSH32 0x1FFC9A700000000000000000000000000000000000000000000000000000000 PUSH28 0xFFFFFFFFFFFFFFFFFFFFFFFFFFFFFFFFFFFFFFFFFFFFFFFFFFFFFFFF NOT AND DUP3 PUSH28 0xFFFFFFFFFFFFFFFFFFFFFFFFFFFFFFFFFFFFFFFFFFFFFFFFFFFFFFFF NOT AND EQ SWAP1 POP SWAP2 SWAP1 POP JUMP JUMPDEST PUSH2 0xFCE DUP2 PUSH2 0x1767 JUMP JUMPDEST PUSH2 0x100D JUMPI PUSH1 0x40 MLOAD PUSH32 0x8C379A000000000000000000000000000000000000000000000000000000000 DUP2 MSTORE PUSH1 0x4 ADD PUSH2 0x1004 SWAP1 PUSH2 0x2B86 JUMP JUMPDEST PUSH1 0x40 MLOAD DUP1 SWAP2 SUB SWAP1 REVERT JUMPDEST POP JUMP JUMPDEST PUSH1 0x0 CALLER SWAP1 POP SWAP1 JUMP JUMPDEST DUP2 PUSH1 0x4 PUSH1 0x0 DUP4 DUP2 MSTORE PUSH1 0x20 ADD SWAP1 DUP2 MSTORE PUSH1 0x20 ADD PUSH1 0x0 KECCAK256 PUSH1 0x0 PUSH2 0x100 EXP DUP2 SLOAD DUP2 PUSH20 0xFFFFFFFFFFFFFFFFFFFFFFFFFFFFFFFFFFFFFFFF MUL NOT AND SWAP1 DUP4 PUSH20 0xFFFFFFFFFFFFFFFFFFFFFFFFFFFFFFFFFFFFFFFF AND MUL OR SWAP1 SSTORE POP DUP1 DUP3 PUSH20 0xFFFFFFFFFFFFFFFFFFFFFFFFFFFFFFFFFFFFFFFF AND PUSH2 0x108B DUP4 PUSH2 0xB26 JUMP JUMPDEST PUSH20 0xFFFFFFFFFFFFFFFFFFFFFFFFFFFFFFFFFFFFFFFF AND PUSH32 0x8C5BE1E5EBEC7D5BD14F71427D1E84F3DD0314C0F7B2291E5B200AC8C7C3B925 PUSH1 0x40 MLOAD PUSH1 0x40 MLOAD DUP1 SWAP2 SUB SWAP1 LOG4 POP POP JUMP JUMPDEST PUSH1 0x0 DUP1 PUSH2 0x10DD DUP4 PUSH2 0xB26 JUMP JUMPDEST SWAP1 POP DUP1 PUSH20 0xFFFFFFFFFFFFFFFFFFFFFFFFFFFFFFFFFFFFFFFF AND DUP5 PUSH20 0xFFFFFFFFFFFFFFFFFFFFFFFFFFFFFFFFFFFFFFFF AND EQ DUP1 PUSH2 0x111F JUMPI POP PUSH2 0x111E DUP2 DUP6 PUSH2 0xEC7 JUMP JUMPDEST JUMPDEST DUP1 PUSH2 0x115D JUMPI POP DUP4 PUSH20 0xFFFFFFFFFFFFFFFFFFFFFFFFFFFFFFFFFFFFFFFF AND PUSH2 0x1145 DUP5 PUSH2 0x679 JUMP JUMPDEST PUSH20 0xFFFFFFFFFFFFFFFFFFFFFFFFFFFFFFFFFFFFFFFF AND EQ JUMPDEST SWAP2 POP POP SWAP3 SWAP2 POP POP JUMP JUMPDEST DUP3 PUSH20 0xFFFFFFFFFFFFFFFFFFFFFFFFFFFFFFFFFFFFFFFF AND PUSH2 0x1186 DUP3 PUSH2 0xB26 JUMP JUMPDEST PUSH20 0xFFFFFFFFFFFFFFFFFFFFFFFFFFFFFFFFFFFFFFFF AND EQ PUSH2 0x11DC JUMPI PUSH1 0x40 MLOAD PUSH32 0x8C379A000000000000000000000000000000000000000000000000000000000 DUP2 MSTORE PUSH1 0x4 ADD PUSH2 0x11D3 SWAP1 PUSH2 0x2D52 JUMP JUMPDEST PUSH1 0x40 MLOAD DUP1 SWAP2 SUB SWAP1 REVERT JUMPDEST PUSH1 0x0 PUSH20 0xFFFFFFFFFFFFFFFFFFFFFFFFFFFFFFFFFFFFFFFF AND DUP3 PUSH20 0xFFFFFFFFFFFFFFFFFFFFFFFFFFFFFFFFFFFFFFFF AND SUB PUSH2 0x124B JUMPI PUSH1 0x40 MLOAD PUSH32 0x8C379A000000000000000000000000000000000000000000000000000000000 DUP2 MSTORE PUSH1 0x4 ADD PUSH2 0x1242 SWAP1 PUSH2 0x2DE4 JUMP JUMPDEST PUSH1 0x40 MLOAD DUP1 SWAP2 SUB SWAP1 REVERT JUMPDEST PUSH2 0x1258 DUP4 DUP4 DUP4 PUSH1 0x1 PUSH2 0x17A8 JUMP JUMPDEST DUP3 PUSH20 0xFFFFFFFFFFFFFFFFFFFFFFFFFFFFFFFFFFFFFFFF AND PUSH2 0x1278 DUP3 PUSH2 0xB26 JUMP JUMPDEST PUSH20 0xFFFFFFFFFFFFFFFFFFFFFFFFFFFFFFFFFFFFFFFF AND EQ PUSH2 0x12CE JUMPI PUSH1 0x40 MLOAD PUSH32 0x8C379A000000000000000000000000000000000000000000000000000000000 DUP2 MSTORE PUSH1 0x4 ADD PUSH2 0x12C5 SWAP1 PUSH2 0x2D52 JUMP JUMPDEST PUSH1 0x40 MLOAD DUP1 SWAP2 SUB SWAP1 REVERT JUMPDEST PUSH1 0x4 PUSH1 0x0 DUP3 DUP2 MSTORE PUSH1 0x20 ADD SWAP1 DUP2 MSTORE PUSH1 0x20 ADD PUSH1 0x0 KECCAK256 PUSH1 0x0 PUSH2 0x100 EXP DUP2 SLOAD SWAP1 PUSH20 0xFFFFFFFFFFFFFFFFFFFFFFFFFFFFFFFFFFFFFFFF MUL NOT AND SWAP1 SSTORE PUSH1 0x1 PUSH1 0x3 PUSH1 0x0 DUP6 PUSH20 0xFFFFFFFFFFFFFFFFFFFFFFFFFFFFFFFFFFFFFFFF AND PUSH20 0xFFFFFFFFFFFFFFFFFFFFFFFFFFFFFFFFFFFFFFFF AND DUP2 MSTORE PUSH1 0x20 ADD SWAP1 DUP2 MSTORE PUSH1 0x20 ADD PUSH1 0x0 KECCAK256 PUSH1 0x0 DUP3 DUP3 SLOAD SUB SWAP3 POP POP DUP2 SWAP1 SSTORE POP PUSH1 0x1 PUSH1 0x3 PUSH1 0x0 DUP5 PUSH20 0xFFFFFFFFFFFFFFFFFFFFFFFFFFFFFFFFFFFFFFFF AND PUSH20 0xFFFFFFFFFFFFFFFFFFFFFFFFFFFFFFFFFFFFFFFF AND DUP2 MSTORE PUSH1 0x20 ADD SWAP1 DUP2 MSTORE PUSH1 0x20 ADD PUSH1 0x0 KECCAK256 PUSH1 0x0 DUP3 DUP3 SLOAD ADD SWAP3 POP POP DUP2 SWAP1 SSTORE POP DUP2 PUSH1 0x2 PUSH1 0x0 DUP4 DUP2 MSTORE PUSH1 0x20 ADD SWAP1 DUP2 MSTORE PUSH1 0x20 ADD PUSH1 0x0 KECCAK256 PUSH1 0x0 PUSH2 0x100 EXP DUP2 SLOAD DUP2 PUSH20 0xFFFFFFFFFFFFFFFFFFFFFFFFFFFFFFFFFFFFFFFF MUL NOT AND SWAP1 DUP4 PUSH20 0xFFFFFFFFFFFFFFFFFFFFFFFFFFFFFFFFFFFFFFFF AND MUL OR SWAP1 SSTORE POP DUP1 DUP3 PUSH20 0xFFFFFFFFFFFFFFFFFFFFFFFFFFFFFFFFFFFFFFFF AND DUP5 PUSH20 0xFFFFFFFFFFFFFFFFFFFFFFFFFFFFFFFFFFFFFFFF AND PUSH32 0xDDF252AD1BE2C89B69C2B068FC378DAA952BA7F163C4A11628F55A4DF523B3EF PUSH1 0x40 MLOAD PUSH1 0x40 MLOAD DUP1 SWAP2 SUB SWAP1 LOG4 PUSH2 0x145A DUP4 DUP4 DUP4 PUSH1 0x1 PUSH2 0x18CE JUMP JUMPDEST POP POP POP JUMP JUMPDEST PUSH1 0x0 PUSH1 0x2 PUSH1 0x0 DUP4 DUP2 MSTORE PUSH1 0x20 ADD SWAP1 DUP2 MSTORE PUSH1 0x20 ADD PUSH1 0x0 KECCAK256 PUSH1 0x0 SWAP1 SLOAD SWAP1 PUSH2 0x100 EXP SWAP1 DIV PUSH20 0xFFFFFFFFFFFFFFFFFFFFFFFFFFFFFFFFFFFFFFFF AND SWAP1 POP SWAP2 SWAP1 POP JUMP JUMPDEST PUSH2 0x14B6 DUP3 DUP3 PUSH1 0x40 MLOAD DUP1 PUSH1 0x20 ADD PUSH1 0x40 MSTORE DUP1 PUSH1 0x0 DUP2 MSTORE POP PUSH2 0x18D4 JUMP JUMPDEST POP POP JUMP JUMPDEST DUP2 PUSH20 0xFFFFFFFFFFFFFFFFFFFFFFFFFFFFFFFFFFFFFFFF AND DUP4 PUSH20 0xFFFFFFFFFFFFFFFFFFFFFFFFFFFFFFFFFFFFFFFF AND SUB PUSH2 0x1528 JUMPI PUSH1 0x40 MLOAD PUSH32 0x8C379A000000000000000000000000000000000000000000000000000000000 DUP2 MSTORE PUSH1 0x4 ADD PUSH2 0x151F SWAP1 PUSH2 0x2E50 JUMP JUMPDEST PUSH1 0x40 MLOAD DUP1 SWAP2 SUB SWAP1 REVERT JUMPDEST DUP1 PUSH1 0x5 PUSH1 0x0 DUP6 PUSH20 0xFFFFFFFFFFFFFFFFFFFFFFFFFFFFFFFFFFFFFFFF AND PUSH20 0xFFFFFFFFFFFFFFFFFFFFFFFFFFFFFFFFFFFFFFFF AND DUP2 MSTORE PUSH1 0x20 ADD SWAP1 DUP2 MSTORE PUSH1 0x20 ADD PUSH1 0x0 KECCAK256 PUSH1 0x0 DUP5 PUSH20 0xFFFFFFFFFFFFFFFFFFFFFFFFFFFFFFFFFFFFFFFF AND PUSH20 0xFFFFFFFFFFFFFFFFFFFFFFFFFFFFFFFFFFFFFFFF AND DUP2 MSTORE PUSH1 0x20 ADD SWAP1 DUP2 MSTORE PUSH1 0x20 ADD PUSH1 0x0 KECCAK256 PUSH1 0x0 PUSH2 0x100 EXP DUP2 SLOAD DUP2 PUSH1 0xFF MUL NOT AND SWAP1 DUP4 ISZERO ISZERO MUL OR SWAP1 SSTORE POP DUP2 PUSH20 0xFFFFFFFFFFFFFFFFFFFFFFFFFFFFFFFFFFFFFFFF AND DUP4 PUSH20 0xFFFFFFFFFFFFFFFFFFFFFFFFFFFFFFFFFFFFFFFF AND PUSH32 0x17307EAB39AB6107E8899845AD3D59BD9653F200F220920489CA2B5937696C31 DUP4 PUSH1 0x40 MLOAD PUSH2 0x1619 SWAP2 SWAP1 PUSH2 0x1F20 JUMP JUMPDEST PUSH1 0x40 MLOAD DUP1 SWAP2 SUB SWAP1 LOG3 POP POP POP JUMP JUMPDEST PUSH2 0x1631 DUP5 DUP5 DUP5 PUSH2 0x1166 JUMP JUMPDEST PUSH2 0x163D DUP5 DUP5 DUP5 DUP5 PUSH2 0x192F JUMP JUMPDEST PUSH2 0x167C JUMPI PUSH1 0x40 MLOAD PUSH32 0x8C379A000000000000000000000000000000000000000000000000000000000 DUP2 MSTORE PUSH1 0x4 ADD PUSH2 0x1673 SWAP1 PUSH2 0x2EE2 JUMP JUMPDEST PUSH1 0x40 MLOAD DUP1 SWAP2 SUB SWAP1 REVERT JUMPDEST POP POP POP POP JUMP JUMPDEST PUSH1 0x60 PUSH1 0x40 MLOAD DUP1 PUSH1 0x20 ADD PUSH1 0x40 MSTORE DUP1 PUSH1 0x0 DUP2 MSTORE POP SWAP1 POP SWAP1 JUMP JUMPDEST PUSH1 0x60 PUSH1 0x0 PUSH1 0x1 PUSH2 0x16A8 DUP5 PUSH2 0x1AB6 JUMP JUMPDEST ADD SWAP1 POP PUSH1 0x0 DUP2 PUSH8 0xFFFFFFFFFFFFFFFF DUP2 GT ISZERO PUSH2 0x16C7 JUMPI PUSH2 0x16C6 PUSH2 0x2279 JUMP JUMPDEST JUMPDEST PUSH1 0x40 MLOAD SWAP1 DUP1 DUP3 MSTORE DUP1 PUSH1 0x1F ADD PUSH1 0x1F NOT AND PUSH1 0x20 ADD DUP3 ADD PUSH1 0x40 MSTORE DUP1 ISZERO PUSH2 0x16F9 JUMPI DUP2 PUSH1 0x20 ADD PUSH1 0x1 DUP3 MUL DUP1 CALLDATASIZE DUP4 CALLDATACOPY DUP1 DUP3 ADD SWAP2 POP POP SWAP1 POP JUMPDEST POP SWAP1 POP PUSH1 0x0 DUP3 PUSH1 0x20 ADD DUP3 ADD SWAP1 POP JUMPDEST PUSH1 0x1 ISZERO PUSH2 0x175C JUMPI DUP1 DUP1 PUSH1 0x1 SWAP1 SUB SWAP2 POP POP PUSH32 0x3031323334353637383961626364656600000000000000000000000000000000 PUSH1 0xA DUP7 MOD BYTE DUP2 MSTORE8 PUSH1 0xA DUP6 DUP2 PUSH2 0x1750 JUMPI PUSH2 0x174F PUSH2 0x2F02 JUMP JUMPDEST JUMPDEST DIV SWAP5 POP PUSH1 0x0 DUP6 SUB PUSH2 0x1707 JUMPI JUMPDEST DUP2 SWAP4 POP POP POP POP SWAP2 SWAP1 POP JUMP JUMPDEST PUSH1 0x0 DUP1 PUSH20 0xFFFFFFFFFFFFFFFFFFFFFFFFFFFFFFFFFFFFFFFF AND PUSH2 0x1789 DUP4 PUSH2 0x145F JUMP JUMPDEST PUSH20 0xFFFFFFFFFFFFFFFFFFFFFFFFFFFFFFFFFFFFFFFF AND EQ ISZERO SWAP1 POP SWAP2 SWAP1 POP JUMP JUMPDEST PUSH1 0x1 DUP2 GT ISZERO PUSH2 0x18C8 JUMPI PUSH1 0x0 PUSH20 0xFFFFFFFFFFFFFFFFFFFFFFFFFFFFFFFFFFFFFFFF AND DUP5 PUSH20 0xFFFFFFFFFFFFFFFFFFFFFFFFFFFFFFFFFFFFFFFF AND EQ PUSH2 0x183C JUMPI DUP1 PUSH1 0x3 PUSH1 0x0 DUP7 PUSH20 0xFFFFFFFFFFFFFFFFFFFFFFFFFFFFFFFFFFFFFFFF AND PUSH20 0xFFFFFFFFFFFFFFFFFFFFFFFFFFFFFFFFFFFFFFFF AND DUP2 MSTORE PUSH1 0x20 ADD SWAP1 DUP2 MSTORE PUSH1 0x20 ADD PUSH1 0x0 KECCAK256 PUSH1 0x0 DUP3 DUP3 SLOAD PUSH2 0x1834 SWAP2 SWAP1 PUSH2 0x2F31 JUMP JUMPDEST SWAP3 POP POP DUP2 SWAP1 SSTORE POP JUMPDEST PUSH1 0x0 PUSH20 0xFFFFFFFFFFFFFFFFFFFFFFFFFFFFFFFFFFFFFFFF AND DUP4 PUSH20 0xFFFFFFFFFFFFFFFFFFFFFFFFFFFFFFFFFFFFFFFF AND EQ PUSH2 0x18C7 JUMPI DUP1 PUSH1 0x3 PUSH1 0x0 DUP6 PUSH20 0xFFFFFFFFFFFFFFFFFFFFFFFFFFFFFFFFFFFFFFFF AND PUSH20 0xFFFFFFFFFFFFFFFFFFFFFFFFFFFFFFFFFFFFFFFF AND DUP2 MSTORE PUSH1 0x20 ADD SWAP1 DUP2 MSTORE PUSH1 0x20 ADD PUSH1 0x0 KECCAK256 PUSH1 0x0 DUP3 DUP3 SLOAD PUSH2 0x18BF SWAP2 SWAP1 PUSH2 0x2888 JUMP JUMPDEST SWAP3 POP POP DUP2 SWAP1 SSTORE POP JUMPDEST JUMPDEST POP POP POP POP JUMP JUMPDEST POP POP POP POP JUMP JUMPDEST PUSH2 0x18DE DUP4 DUP4 PUSH2 0x1C09 JUMP JUMPDEST PUSH2 0x18EB PUSH1 0x0 DUP5 DUP5 DUP5 PUSH2 0x192F JUMP JUMPDEST PUSH2 0x192A JUMPI PUSH1 0x40 MLOAD PUSH32 0x8C379A000000000000000000000000000000000000000000000000000000000 DUP2 MSTORE PUSH1 0x4 ADD PUSH2 0x1921 SWAP1 PUSH2 0x2EE2 JUMP JUMPDEST PUSH1 0x40 MLOAD DUP1 SWAP2 SUB SWAP1 REVERT JUMPDEST POP POP POP JUMP JUMPDEST PUSH1 0x0 PUSH2 0x1950 DUP5 PUSH20 0xFFFFFFFFFFFFFFFFFFFFFFFFFFFFFFFFFFFFFFFF AND PUSH2 0x1E26 JUMP JUMPDEST ISZERO PUSH2 0x1AA9 JUMPI DUP4 PUSH20 0xFFFFFFFFFFFFFFFFFFFFFFFFFFFFFFFFFFFFFFFF AND PUSH4 0x150B7A02 PUSH2 0x1979 PUSH2 0x1010 JUMP JUMPDEST DUP8 DUP7 DUP7 PUSH1 0x40 MLOAD DUP6 PUSH4 0xFFFFFFFF AND PUSH1 0xE0 SHL DUP2 MSTORE PUSH1 0x4 ADD PUSH2 0x199B SWAP5 SWAP4 SWAP3 SWAP2 SWAP1 PUSH2 0x2FBA JUMP JUMPDEST PUSH1 0x20 PUSH1 0x40 MLOAD DUP1 DUP4 SUB DUP2 PUSH1 0x0 DUP8 GAS CALL SWAP3 POP POP POP DUP1 ISZERO PUSH2 0x19D7 JUMPI POP PUSH1 0x40 MLOAD RETURNDATASIZE PUSH1 0x1F NOT PUSH1 0x1F DUP3 ADD AND DUP3 ADD DUP1 PUSH1 0x40 MSTORE POP DUP2 ADD SWAP1 PUSH2 0x19D4 SWAP2 SWAP1 PUSH2 0x301B JUMP JUMPDEST PUSH1 0x1 JUMPDEST PUSH2 0x1A59 JUMPI RETURNDATASIZE DUP1 PUSH1 0x0 DUP2 EQ PUSH2 0x1A07 JUMPI PUSH1 0x40 MLOAD SWAP2 POP PUSH1 0x1F NOT PUSH1 0x3F RETURNDATASIZE ADD AND DUP3 ADD PUSH1 0x40 MSTORE RETURNDATASIZE DUP3 MSTORE RETURNDATASIZE PUSH1 0x0 PUSH1 0x20 DUP5 ADD RETURNDATACOPY PUSH2 0x1A0C JUMP JUMPDEST PUSH1 0x60 SWAP2 POP JUMPDEST POP PUSH1 0x0 DUP2 MLOAD SUB PUSH2 0x1A51 JUMPI PUSH1 0x40 MLOAD PUSH32 0x8C379A000000000000000000000000000000000000000000000000000000000 DUP2 MSTORE PUSH1 0x4 ADD PUSH2 0x1A48 SWAP1 PUSH2 0x2EE2 JUMP JUMPDEST PUSH1 0x40 MLOAD DUP1 SWAP2 SUB SWAP1 REVERT JUMPDEST DUP1 MLOAD DUP2 PUSH1 0x20 ADD REVERT JUMPDEST PUSH4 0x150B7A02 PUSH1 0xE0 SHL PUSH28 0xFFFFFFFFFFFFFFFFFFFFFFFFFFFFFFFFFFFFFFFFFFFFFFFFFFFFFFFF NOT AND DUP2 PUSH28 0xFFFFFFFFFFFFFFFFFFFFFFFFFFFFFFFFFFFFFFFFFFFFFFFFFFFFFFFF NOT AND EQ SWAP2 POP POP PUSH2 0x1AAE JUMP JUMPDEST PUSH1 0x1 SWAP1 POP JUMPDEST SWAP5 SWAP4 POP POP POP POP JUMP JUMPDEST PUSH1 0x0 DUP1 PUSH1 0x0 SWAP1 POP PUSH27 0x184F03E93FF9F4DAA797ED6E38ED64BF6A1F010000000000000000 DUP4 LT PUSH2 0x1B14 JUMPI PUSH27 0x184F03E93FF9F4DAA797ED6E38ED64BF6A1F010000000000000000 DUP4 DUP2 PUSH2 0x1B0A JUMPI PUSH2 0x1B09 PUSH2 0x2F02 JUMP JUMPDEST JUMPDEST DIV SWAP3 POP PUSH1 0x40 DUP2 ADD SWAP1 POP JUMPDEST PUSH14 0x4EE2D6D415B85ACEF8100000000 DUP4 LT PUSH2 0x1B51 JUMPI PUSH14 0x4EE2D6D415B85ACEF8100000000 DUP4 DUP2 PUSH2 0x1B47 JUMPI PUSH2 0x1B46 PUSH2 0x2F02 JUMP JUMPDEST JUMPDEST DIV SWAP3 POP PUSH1 0x20 DUP2 ADD SWAP1 POP JUMPDEST PUSH7 0x2386F26FC10000 DUP4 LT PUSH2 0x1B80 JUMPI PUSH7 0x2386F26FC10000 DUP4 DUP2 PUSH2 0x1B76 JUMPI PUSH2 0x1B75 PUSH2 0x2F02 JUMP JUMPDEST JUMPDEST DIV SWAP3 POP PUSH1 0x10 DUP2 ADD SWAP1 POP JUMPDEST PUSH4 0x5F5E100 DUP4 LT PUSH2 0x1BA9 JUMPI PUSH4 0x5F5E100 DUP4 DUP2 PUSH2 0x1B9F JUMPI PUSH2 0x1B9E PUSH2 0x2F02 JUMP JUMPDEST JUMPDEST DIV SWAP3 POP PUSH1 0x8 DUP2 ADD SWAP1 POP JUMPDEST PUSH2 0x2710 DUP4 LT PUSH2 0x1BCE JUMPI PUSH2 0x2710 DUP4 DUP2 PUSH2 0x1BC4 JUMPI PUSH2 0x1BC3 PUSH2 0x2F02 JUMP JUMPDEST JUMPDEST DIV SWAP3 POP PUSH1 0x4 DUP2 ADD SWAP1 POP JUMPDEST PUSH1 0x64 DUP4 LT PUSH2 0x1BF1 JUMPI PUSH1 0x64 DUP4 DUP2 PUSH2 0x1BE7 JUMPI PUSH2 0x1BE6 PUSH2 0x2F02 JUMP JUMPDEST JUMPDEST DIV SWAP3 POP PUSH1 0x2 DUP2 ADD SWAP1 POP JUMPDEST PUSH1 0xA DUP4 LT PUSH2 0x1C00 JUMPI PUSH1 0x1 DUP2 ADD SWAP1 POP JUMPDEST DUP1 SWAP2 POP POP SWAP2 SWAP1 POP JUMP JUMPDEST PUSH1 0x0 PUSH20 0xFFFFFFFFFFFFFFFFFFFFFFFFFFFFFFFFFFFFFFFF AND DUP3 PUSH20 0xFFFFFFFFFFFFFFFFFFFFFFFFFFFFFFFFFFFFFFFF AND SUB PUSH2 0x1C78 JUMPI PUSH1 0x40 MLOAD PUSH32 0x8C379A000000000000000000000000000000000000000000000000000000000 DUP2 MSTORE PUSH1 0x4 ADD PUSH2 0x1C6F SWAP1 PUSH2 0x3094 JUMP JUMPDEST PUSH1 0x40 MLOAD DUP1 SWAP2 SUB SWAP1 REVERT JUMPDEST PUSH2 0x1C81 DUP2 PUSH2 0x1767 JUMP JUMPDEST ISZERO PUSH2 0x1CC1 JUMPI PUSH1 0x40 MLOAD PUSH32 0x8C379A000000000000000000000000000000000000000000000000000000000 DUP2 MSTORE PUSH1 0x4 ADD PUSH2 0x1CB8 SWAP1 PUSH2 0x3100 JUMP JUMPDEST PUSH1 0x40 MLOAD DUP1 SWAP2 SUB SWAP1 REVERT JUMPDEST PUSH2 0x1CCF PUSH1 0x0 DUP4 DUP4 PUSH1 0x1 PUSH2 0x17A8 JUMP JUMPDEST PUSH2 0x1CD8 DUP2 PUSH2 0x1767 JUMP JUMPDEST ISZERO PUSH2 0x1D18 JUMPI PUSH1 0x40 MLOAD PUSH32 0x8C379A000000000000000000000000000000000000000000000000000000000 DUP2 MSTORE PUSH1 0x4 ADD PUSH2 0x1D0F SWAP1 PUSH2 0x3100 JUMP JUMPDEST PUSH1 0x40 MLOAD DUP1 SWAP2 SUB SWAP1 REVERT JUMPDEST PUSH1 0x1 PUSH1 0x3 PUSH1 0x0 DUP5 PUSH20 0xFFFFFFFFFFFFFFFFFFFFFFFFFFFFFFFFFFFFFFFF AND PUSH20 0xFFFFFFFFFFFFFFFFFFFFFFFFFFFFFFFFFFFFFFFF AND DUP2 MSTORE PUSH1 0x20 ADD SWAP1 DUP2 MSTORE PUSH1 0x20 ADD PUSH1 0x0 KECCAK256 PUSH1 0x0 DUP3 DUP3 SLOAD ADD SWAP3 POP POP DUP2 SWAP1 SSTORE POP DUP2 PUSH1 0x2 PUSH1 0x0 DUP4 DUP2 MSTORE PUSH1 0x20 ADD SWAP1 DUP2 MSTORE PUSH1 0x20 ADD PUSH1 0x0 KECCAK256 PUSH1 0x0 PUSH2 0x100 EXP DUP2 SLOAD DUP2 PUSH20 0xFFFFFFFFFFFFFFFFFFFFFFFFFFFFFFFFFFFFFFFF MUL NOT AND SWAP1 DUP4 PUSH20 0xFFFFFFFFFFFFFFFFFFFFFFFFFFFFFFFFFFFFFFFF AND MUL OR SWAP1 SSTORE POP DUP1 DUP3 PUSH20 0xFFFFFFFFFFFFFFFFFFFFFFFFFFFFFFFFFFFFFFFF AND PUSH1 0x0 PUSH20 0xFFFFFFFFFFFFFFFFFFFFFFFFFFFFFFFFFFFFFFFF AND PUSH32 0xDDF252AD1BE2C89B69C2B068FC378DAA952BA7F163C4A11628F55A4DF523B3EF PUSH1 0x40 MLOAD PUSH1 0x40 MLOAD DUP1 SWAP2 SUB SWAP1 LOG4 PUSH2 0x1E22 PUSH1 0x0 DUP4 DUP4 PUSH1 0x1 PUSH2 0x18CE JUMP JUMPDEST POP POP JUMP JUMPDEST PUSH1 0x0 DUP1 DUP3 PUSH20 0xFFFFFFFFFFFFFFFFFFFFFFFFFFFFFFFFFFFFFFFF AND EXTCODESIZE GT SWAP1 POP SWAP2 SWAP1 POP JUMP JUMPDEST PUSH1 0x40 MLOAD DUP1 PUSH1 0x60 ADD PUSH1 0x40 MSTORE DUP1 PUSH1 0x60 DUP2 MSTORE PUSH1 0x20 ADD PUSH1 0x0 DUP2 MSTORE PUSH1 0x20 ADD PUSH1 0x0 ISZERO ISZERO DUP2 MSTORE POP SWAP1 JUMP JUMPDEST PUSH1 0x0 PUSH1 0x40 MLOAD SWAP1 POP SWAP1 JUMP JUMPDEST PUSH1 0x0 DUP1 REVERT JUMPDEST PUSH1 0x0 DUP1 REVERT JUMPDEST PUSH1 0x0 PUSH32 0xFFFFFFFF00000000000000000000000000000000000000000000000000000000 DUP3 AND SWAP1 POP SWAP2 SWAP1 POP JUMP JUMPDEST PUSH2 0x1EB5 DUP2 PUSH2 0x1E80 JUMP JUMPDEST DUP2 EQ PUSH2 0x1EC0 JUMPI PUSH1 0x0 DUP1 REVERT JUMPDEST POP JUMP JUMPDEST PUSH1 0x0 DUP2 CALLDATALOAD SWAP1 POP PUSH2 0x1ED2 DUP2 PUSH2 0x1EAC JUMP JUMPDEST SWAP3 SWAP2 POP POP JUMP JUMPDEST PUSH1 0x0 PUSH1 0x20 DUP3 DUP5 SUB SLT ISZERO PUSH2 0x1EEE JUMPI PUSH2 0x1EED PUSH2 0x1E76 JUMP JUMPDEST JUMPDEST PUSH1 0x0 PUSH2 0x1EFC DUP5 DUP3 DUP6 ADD PUSH2 0x1EC3 JUMP JUMPDEST SWAP2 POP POP SWAP3 SWAP2 POP POP JUMP JUMPDEST PUSH1 0x0 DUP2 ISZERO ISZERO SWAP1 POP SWAP2 SWAP1 POP JUMP JUMPDEST PUSH2 0x1F1A DUP2 PUSH2 0x1F05 JUMP JUMPDEST DUP3 MSTORE POP POP JUMP JUMPDEST PUSH1 0x0 PUSH1 0x20 DUP3 ADD SWAP1 POP PUSH2 0x1F35 PUSH1 0x0 DUP4 ADD DUP5 PUSH2 0x1F11 JUMP JUMPDEST SWAP3 SWAP2 POP POP JUMP JUMPDEST PUSH1 0x0 DUP2 MLOAD SWAP1 POP SWAP2 SWAP1 POP JUMP JUMPDEST PUSH1 0x0 DUP3 DUP3 MSTORE PUSH1 0x20 DUP3 ADD SWAP1 POP SWAP3 SWAP2 POP POP JUMP JUMPDEST PUSH1 0x0 JUMPDEST DUP4 DUP2 LT ISZERO PUSH2 0x1F75 JUMPI DUP1 DUP3 ADD MLOAD DUP2 DUP5 ADD MSTORE PUSH1 0x20 DUP2 ADD SWAP1 POP PUSH2 0x1F5A JUMP JUMPDEST PUSH1 0x0 DUP5 DUP5 ADD MSTORE POP POP POP POP JUMP JUMPDEST PUSH1 0x0 PUSH1 0x1F NOT PUSH1 0x1F DUP4 ADD AND SWAP1 POP SWAP2 SWAP1 POP JUMP JUMPDEST PUSH1 0x0 PUSH2 0x1F9D DUP3 PUSH2 0x1F3B JUMP JUMPDEST PUSH2 0x1FA7 DUP2 DUP6 PUSH2 0x1F46 JUMP JUMPDEST SWAP4 POP PUSH2 0x1FB7 DUP2 DUP6 PUSH1 0x20 DUP7 ADD PUSH2 0x1F57 JUMP JUMPDEST PUSH2 0x1FC0 DUP2 PUSH2 0x1F81 JUMP JUMPDEST DUP5 ADD SWAP2 POP POP SWAP3 SWAP2 POP POP JUMP JUMPDEST PUSH1 0x0 PUSH1 0x20 DUP3 ADD SWAP1 POP DUP2 DUP2 SUB PUSH1 0x0 DUP4 ADD MSTORE PUSH2 0x1FE5 DUP2 DUP5 PUSH2 0x1F92 JUMP JUMPDEST SWAP1 POP SWAP3 SWAP2 POP POP JUMP JUMPDEST PUSH1 0x0 DUP2 SWAP1 POP SWAP2 SWAP1 POP JUMP JUMPDEST PUSH2 0x2000 DUP2 PUSH2 0x1FED JUMP JUMPDEST DUP2 EQ PUSH2 0x200B JUMPI PUSH1 0x0 DUP1 REVERT JUMPDEST POP JUMP JUMPDEST PUSH1 0x0 DUP2 CALLDATALOAD SWAP1 POP PUSH2 0x201D DUP2 PUSH2 0x1FF7 JUMP JUMPDEST SWAP3 SWAP2 POP POP JUMP JUMPDEST PUSH1 0x0 PUSH1 0x20 DUP3 DUP5 SUB SLT ISZERO PUSH2 0x2039 JUMPI PUSH2 0x2038 PUSH2 0x1E76 JUMP JUMPDEST JUMPDEST PUSH1 0x0 PUSH2 0x2047 DUP5 DUP3 DUP6 ADD PUSH2 0x200E JUMP JUMPDEST SWAP2 POP POP SWAP3 SWAP2 POP POP JUMP JUMPDEST PUSH1 0x0 PUSH20 0xFFFFFFFFFFFFFFFFFFFFFFFFFFFFFFFFFFFFFFFF DUP3 AND SWAP1 POP SWAP2 SWAP1 POP JUMP JUMPDEST PUSH1 0x0 PUSH2 0x207B DUP3 PUSH2 0x2050 JUMP JUMPDEST SWAP1 POP SWAP2 SWAP1 POP JUMP JUMPDEST PUSH2 0x208B DUP2 PUSH2 0x2070 JUMP JUMPDEST DUP3 MSTORE POP POP JUMP JUMPDEST PUSH1 0x0 PUSH1 0x20 DUP3 ADD SWAP1 POP PUSH2 0x20A6 PUSH1 0x0 DUP4 ADD DUP5 PUSH2 0x2082 JUMP JUMPDEST SWAP3 SWAP2 POP POP JUMP JUMPDEST PUSH2 0x20B5 DUP2 PUSH2 0x2070 JUMP JUMPDEST DUP2 EQ PUSH2 0x20C0 JUMPI PUSH1 0x0 DUP1 REVERT JUMPDEST POP JUMP JUMPDEST PUSH1 0x0 DUP2 CALLDATALOAD SWAP1 POP PUSH2 0x20D2 DUP2 PUSH2 0x20AC JUMP JUMPDEST SWAP3 SWAP2 POP POP JUMP JUMPDEST PUSH1 0x0 DUP1 PUSH1 0x40 DUP4 DUP6 SUB SLT ISZERO PUSH2 0x20EF JUMPI PUSH2 0x20EE PUSH2 0x1E76 JUMP JUMPDEST JUMPDEST PUSH1 0x0 PUSH2 0x20FD DUP6 DUP3 DUP7 ADD PUSH2 0x20C3 JUMP JUMPDEST SWAP3 POP POP PUSH1 0x20 PUSH2 0x210E DUP6 DUP3 DUP7 ADD PUSH2 0x200E JUMP JUMPDEST SWAP2 POP POP SWAP3 POP SWAP3 SWAP1 POP JUMP JUMPDEST PUSH2 0x2121 DUP2 PUSH2 0x1FED JUMP JUMPDEST DUP3 MSTORE POP POP JUMP JUMPDEST PUSH1 0x0 PUSH1 0x20 DUP3 ADD SWAP1 POP PUSH2 0x213C PUSH1 0x0 DUP4 ADD DUP5 PUSH2 0x2118 JUMP JUMPDEST SWAP3 SWAP2 POP POP JUMP JUMPDEST PUSH1 0x0 DUP3 DUP3 MSTORE PUSH1 0x20 DUP3 ADD SWAP1 POP SWAP3 SWAP2 POP POP JUMP JUMPDEST PUSH1 0x0 PUSH2 0x215E DUP3 PUSH2 0x1F3B JUMP JUMPDEST PUSH2 0x2168 DUP2 DUP6 PUSH2 0x2142 JUMP JUMPDEST SWAP4 POP PUSH2 0x2178 DUP2 DUP6 PUSH1 0x20 DUP7 ADD PUSH2 0x1F57 JUMP JUMPDEST PUSH2 0x2181 DUP2 PUSH2 0x1F81 JUMP JUMPDEST DUP5 ADD SWAP2 POP POP SWAP3 SWAP2 POP POP JUMP JUMPDEST PUSH2 0x2195 DUP2 PUSH2 0x1FED JUMP JUMPDEST DUP3 MSTORE POP POP JUMP JUMPDEST PUSH2 0x21A4 DUP2 PUSH2 0x1F05 JUMP JUMPDEST DUP3 MSTORE POP POP JUMP JUMPDEST PUSH1 0x0 PUSH1 0x60 DUP4 ADD PUSH1 0x0 DUP4 ADD MLOAD DUP5 DUP3 SUB PUSH1 0x0 DUP7 ADD MSTORE PUSH2 0x21C7 DUP3 DUP3 PUSH2 0x2153 JUMP JUMPDEST SWAP2 POP POP PUSH1 0x20 DUP4 ADD MLOAD PUSH2 0x21DC PUSH1 0x20 DUP7 ADD DUP3 PUSH2 0x218C JUMP JUMPDEST POP PUSH1 0x40 DUP4 ADD MLOAD PUSH2 0x21EF PUSH1 0x40 DUP7 ADD DUP3 PUSH2 0x219B JUMP JUMPDEST POP DUP1 SWAP2 POP POP SWAP3 SWAP2 POP POP JUMP JUMPDEST PUSH1 0x0 PUSH1 0x20 DUP3 ADD SWAP1 POP DUP2 DUP2 SUB PUSH1 0x0 DUP4 ADD MSTORE PUSH2 0x2214 DUP2 DUP5 PUSH2 0x21AA JUMP JUMPDEST SWAP1 POP SWAP3 SWAP2 POP POP JUMP JUMPDEST PUSH1 0x0 DUP1 PUSH1 0x0 PUSH1 0x60 DUP5 DUP7 SUB SLT ISZERO PUSH2 0x2235 JUMPI PUSH2 0x2234 PUSH2 0x1E76 JUMP JUMPDEST JUMPDEST PUSH1 0x0 PUSH2 0x2243 DUP7 DUP3 DUP8 ADD PUSH2 0x20C3 JUMP JUMPDEST SWAP4 POP POP PUSH1 0x20 PUSH2 0x2254 DUP7 DUP3 DUP8 ADD PUSH2 0x20C3 JUMP JUMPDEST SWAP3 POP POP PUSH1 0x40 PUSH2 0x2265 DUP7 DUP3 DUP8 ADD PUSH2 0x200E JUMP JUMPDEST SWAP2 POP POP SWAP3 POP SWAP3 POP SWAP3 JUMP JUMPDEST PUSH1 0x0 DUP1 REVERT JUMPDEST PUSH1 0x0 DUP1 REVERT JUMPDEST PUSH32 0x4E487B7100000000000000000000000000000000000000000000000000000000 PUSH1 0x0 MSTORE PUSH1 0x41 PUSH1 0x4 MSTORE PUSH1 0x24 PUSH1 0x0 REVERT JUMPDEST PUSH2 0x22B1 DUP3 PUSH2 0x1F81 JUMP JUMPDEST DUP2 ADD DUP2 DUP2 LT PUSH8 0xFFFFFFFFFFFFFFFF DUP3 GT OR ISZERO PUSH2 0x22D0 JUMPI PUSH2 0x22CF PUSH2 0x2279 JUMP JUMPDEST JUMPDEST DUP1 PUSH1 0x40 MSTORE POP POP POP JUMP JUMPDEST PUSH1 0x0 PUSH2 0x22E3 PUSH2 0x1E6C JUMP JUMPDEST SWAP1 POP PUSH2 0x22EF DUP3 DUP3 PUSH2 0x22A8 JUMP JUMPDEST SWAP2 SWAP1 POP JUMP JUMPDEST PUSH1 0x0 PUSH8 0xFFFFFFFFFFFFFFFF DUP3 GT ISZERO PUSH2 0x230F JUMPI PUSH2 0x230E PUSH2 0x2279 JUMP JUMPDEST JUMPDEST PUSH2 0x2318 DUP3 PUSH2 0x1F81 JUMP JUMPDEST SWAP1 POP PUSH1 0x20 DUP2 ADD SWAP1 POP SWAP2 SWAP1 POP JUMP JUMPDEST DUP3 DUP2 DUP4 CALLDATACOPY PUSH1 0x0 DUP4 DUP4 ADD MSTORE POP POP POP JUMP JUMPDEST PUSH1 0x0 PUSH2 0x2347 PUSH2 0x2342 DUP5 PUSH2 0x22F4 JUMP JUMPDEST PUSH2 0x22D9 JUMP JUMPDEST SWAP1 POP DUP3 DUP2 MSTORE PUSH1 0x20 DUP2 ADD DUP5 DUP5 DUP5 ADD GT ISZERO PUSH2 0x2363 JUMPI PUSH2 0x2362 PUSH2 0x2274 JUMP JUMPDEST JUMPDEST PUSH2 0x236E DUP5 DUP3 DUP6 PUSH2 0x2325 JUMP JUMPDEST POP SWAP4 SWAP3 POP POP POP JUMP JUMPDEST PUSH1 0x0 DUP3 PUSH1 0x1F DUP4 ADD SLT PUSH2 0x238B JUMPI PUSH2 0x238A PUSH2 0x226F JUMP JUMPDEST JUMPDEST DUP2 CALLDATALOAD PUSH2 0x239B DUP5 DUP3 PUSH1 0x20 DUP7 ADD PUSH2 0x2334 JUMP JUMPDEST SWAP2 POP POP SWAP3 SWAP2 POP POP JUMP JUMPDEST PUSH1 0x0 DUP1 PUSH1 0x40 DUP4 DUP6 SUB SLT ISZERO PUSH2 0x23BB JUMPI PUSH2 0x23BA PUSH2 0x1E76 JUMP JUMPDEST JUMPDEST PUSH1 0x0 DUP4 ADD CALLDATALOAD PUSH8 0xFFFFFFFFFFFFFFFF DUP2 GT ISZERO PUSH2 0x23D9 JUMPI PUSH2 0x23D8 PUSH2 0x1E7B JUMP JUMPDEST JUMPDEST PUSH2 0x23E5 DUP6 DUP3 DUP7 ADD PUSH2 0x2376 JUMP JUMPDEST SWAP3 POP POP PUSH1 0x20 PUSH2 0x23F6 DUP6 DUP3 DUP7 ADD PUSH2 0x200E JUMP JUMPDEST SWAP2 POP POP SWAP3 POP SWAP3 SWAP1 POP JUMP JUMPDEST PUSH1 0x0 PUSH1 0x20 DUP3 DUP5 SUB SLT ISZERO PUSH2 0x2416 JUMPI PUSH2 0x2415 PUSH2 0x1E76 JUMP JUMPDEST JUMPDEST PUSH1 0x0 PUSH2 0x2424 DUP5 DUP3 DUP6 ADD PUSH2 0x20C3 JUMP JUMPDEST SWAP2 POP POP SWAP3 SWAP2 POP POP JUMP JUMPDEST PUSH2 0x2436 DUP2 PUSH2 0x1F05 JUMP JUMPDEST DUP2 EQ PUSH2 0x2441 JUMPI PUSH1 0x0 DUP1 REVERT JUMPDEST POP JUMP JUMPDEST PUSH1 0x0 DUP2 CALLDATALOAD SWAP1 POP PUSH2 0x2453 DUP2 PUSH2 0x242D JUMP JUMPDEST SWAP3 SWAP2 POP POP JUMP JUMPDEST PUSH1 0x0 DUP1 PUSH1 0x40 DUP4 DUP6 SUB SLT ISZERO PUSH2 0x2470 JUMPI PUSH2 0x246F PUSH2 0x1E76 JUMP JUMPDEST JUMPDEST PUSH1 0x0 PUSH2 0x247E DUP6 DUP3 DUP7 ADD PUSH2 0x20C3 JUMP JUMPDEST SWAP3 POP POP PUSH1 0x20 PUSH2 0x248F DUP6 DUP3 DUP7 ADD PUSH2 0x2444 JUMP JUMPDEST SWAP2 POP POP SWAP3 POP SWAP3 SWAP1 POP JUMP JUMPDEST PUSH1 0x0 PUSH8 0xFFFFFFFFFFFFFFFF DUP3 GT ISZERO PUSH2 0x24B4 JUMPI PUSH2 0x24B3 PUSH2 0x2279 JUMP JUMPDEST JUMPDEST PUSH2 0x24BD DUP3 PUSH2 0x1F81 JUMP JUMPDEST SWAP1 POP PUSH1 0x20 DUP2 ADD SWAP1 POP SWAP2 SWAP1 POP JUMP JUMPDEST PUSH1 0x0 PUSH2 0x24DD PUSH2 0x24D8 DUP5 PUSH2 0x2499 JUMP JUMPDEST PUSH2 0x22D9 JUMP JUMPDEST SWAP1 POP DUP3 DUP2 MSTORE PUSH1 0x20 DUP2 ADD DUP5 DUP5 DUP5 ADD GT ISZERO PUSH2 0x24F9 JUMPI PUSH2 0x24F8 PUSH2 0x2274 JUMP JUMPDEST JUMPDEST PUSH2 0x2504 DUP5 DUP3 DUP6 PUSH2 0x2325 JUMP JUMPDEST POP SWAP4 SWAP3 POP POP POP JUMP JUMPDEST PUSH1 0x0 DUP3 PUSH1 0x1F DUP4 ADD SLT PUSH2 0x2521 JUMPI PUSH2 0x2520 PUSH2 0x226F JUMP JUMPDEST JUMPDEST DUP2 CALLDATALOAD PUSH2 0x2531 DUP5 DUP3 PUSH1 0x20 DUP7 ADD PUSH2 0x24CA JUMP JUMPDEST SWAP2 POP POP SWAP3 SWAP2 POP POP JUMP JUMPDEST PUSH1 0x0 DUP1 PUSH1 0x0 DUP1 PUSH1 0x80 DUP6 DUP8 SUB SLT ISZERO PUSH2 0x2554 JUMPI PUSH2 0x2553 PUSH2 0x1E76 JUMP JUMPDEST JUMPDEST PUSH1 0x0 PUSH2 0x2562 DUP8 DUP3 DUP9 ADD PUSH2 0x20C3 JUMP JUMPDEST SWAP5 POP POP PUSH1 0x20 PUSH2 0x2573 DUP8 DUP3 DUP9 ADD PUSH2 0x20C3 JUMP JUMPDEST SWAP4 POP POP PUSH1 0x40 PUSH2 0x2584 DUP8 DUP3 DUP9 ADD PUSH2 0x200E JUMP JUMPDEST SWAP3 POP POP PUSH1 0x60 DUP6 ADD CALLDATALOAD PUSH8 0xFFFFFFFFFFFFFFFF DUP2 GT ISZERO PUSH2 0x25A5 JUMPI PUSH2 0x25A4 PUSH2 0x1E7B JUMP JUMPDEST JUMPDEST PUSH2 0x25B1 DUP8 DUP3 DUP9 ADD PUSH2 0x250C JUMP JUMPDEST SWAP2 POP POP SWAP3 SWAP6 SWAP2 SWAP5 POP SWAP3 POP JUMP JUMPDEST PUSH1 0x0 DUP1 PUSH1 0x40 DUP4 DUP6 SUB SLT ISZERO PUSH2 0x25D4 JUMPI PUSH2 0x25D3 PUSH2 0x1E76 JUMP JUMPDEST JUMPDEST PUSH1 0x0 PUSH2 0x25E2 DUP6 DUP3 DUP7 ADD PUSH2 0x20C3 JUMP JUMPDEST SWAP3 POP POP PUSH1 0x20 PUSH2 0x25F3 DUP6 DUP3 DUP7 ADD PUSH2 0x20C3 JUMP JUMPDEST SWAP2 POP POP SWAP3 POP SWAP3 SWAP1 POP JUMP JUMPDEST PUSH32 0x4E487B7100000000000000000000000000000000000000000000000000000000 PUSH1 0x0 MSTORE PUSH1 0x22 PUSH1 0x4 MSTORE PUSH1 0x24 PUSH1 0x0 REVERT JUMPDEST PUSH1 0x0 PUSH1 0x2 DUP3 DIV SWAP1 POP PUSH1 0x1 DUP3 AND DUP1 PUSH2 0x2644 JUMPI PUSH1 0x7F DUP3 AND SWAP2 POP JUMPDEST PUSH1 0x20 DUP3 LT DUP2 SUB PUSH2 0x2657 JUMPI PUSH2 0x2656 PUSH2 0x25FD JUMP JUMPDEST JUMPDEST POP SWAP2 SWAP1 POP JUMP JUMPDEST PUSH32 0x4552433732313A20617070726F76616C20746F2063757272656E74206F776E65 PUSH1 0x0 DUP3 ADD MSTORE PUSH32 0x7200000000000000000000000000000000000000000000000000000000000000 PUSH1 0x20 DUP3 ADD MSTORE POP JUMP JUMPDEST PUSH1 0x0 PUSH2 0x26B9 PUSH1 0x21 DUP4 PUSH2 0x1F46 JUMP JUMPDEST SWAP2 POP PUSH2 0x26C4 DUP3 PUSH2 0x265D JUMP JUMPDEST PUSH1 0x40 DUP3 ADD SWAP1 POP SWAP2 SWAP1 POP JUMP JUMPDEST PUSH1 0x0 PUSH1 0x20 DUP3 ADD SWAP1 POP DUP2 DUP2 SUB PUSH1 0x0 DUP4 ADD MSTORE PUSH2 0x26E8 DUP2 PUSH2 0x26AC JUMP JUMPDEST SWAP1 POP SWAP2 SWAP1 POP JUMP JUMPDEST PUSH32 0x4552433732313A20617070726F76652063616C6C6572206973206E6F7420746F PUSH1 0x0 DUP3 ADD MSTORE PUSH32 0x6B656E206F776E6572206F7220617070726F76656420666F7220616C6C000000 PUSH1 0x20 DUP3 ADD MSTORE POP JUMP JUMPDEST PUSH1 0x0 PUSH2 0x274B PUSH1 0x3D DUP4 PUSH2 0x1F46 JUMP JUMPDEST SWAP2 POP PUSH2 0x2756 DUP3 PUSH2 0x26EF JUMP JUMPDEST PUSH1 0x40 DUP3 ADD SWAP1 POP SWAP2 SWAP1 POP JUMP JUMPDEST PUSH1 0x0 PUSH1 0x20 DUP3 ADD SWAP1 POP DUP2 DUP2 SUB PUSH1 0x0 DUP4 ADD MSTORE PUSH2 0x277A DUP2 PUSH2 0x273E JUMP JUMPDEST SWAP1 POP SWAP2 SWAP1 POP JUMP JUMPDEST PUSH32 0x4552433732313A2063616C6C6572206973206E6F7420746F6B656E206F776E65 PUSH1 0x0 DUP3 ADD MSTORE PUSH32 0x72206F7220617070726F76656400000000000000000000000000000000000000 PUSH1 0x20 DUP3 ADD MSTORE POP JUMP JUMPDEST PUSH1 0x0 PUSH2 0x27DD PUSH1 0x2D DUP4 PUSH2 0x1F46 JUMP JUMPDEST SWAP2 POP PUSH2 0x27E8 DUP3 PUSH2 0x2781 JUMP JUMPDEST PUSH1 0x40 DUP3 ADD SWAP1 POP SWAP2 SWAP1 POP JUMP JUMPDEST PUSH1 0x0 PUSH1 0x20 DUP3 ADD SWAP1 POP DUP2 DUP2 SUB PUSH1 0x0 DUP4 ADD MSTORE PUSH2 0x280C DUP2 PUSH2 0x27D0 JUMP JUMPDEST SWAP1 POP SWAP2 SWAP1 POP JUMP JUMPDEST PUSH1 0x0 DUP2 SWAP1 POP SWAP3 SWAP2 POP POP JUMP JUMPDEST POP JUMP JUMPDEST PUSH1 0x0 PUSH2 0x282E PUSH1 0x0 DUP4 PUSH2 0x2813 JUMP JUMPDEST SWAP2 POP PUSH2 0x2839 DUP3 PUSH2 0x281E JUMP JUMPDEST PUSH1 0x0 DUP3 ADD SWAP1 POP SWAP2 SWAP1 POP JUMP JUMPDEST PUSH1 0x0 PUSH2 0x284F DUP3 PUSH2 0x2821 JUMP JUMPDEST SWAP2 POP DUP2 SWAP1 POP SWAP2 SWAP1 POP JUMP JUMPDEST PUSH32 0x4E487B7100000000000000000000000000000000000000000000000000000000 PUSH1 0x0 MSTORE PUSH1 0x11 PUSH1 0x4 MSTORE PUSH1 0x24 PUSH1 0x0 REVERT JUMPDEST PUSH1 0x0 PUSH2 0x2893 DUP3 PUSH2 0x1FED JUMP JUMPDEST SWAP2 POP PUSH2 0x289E DUP4 PUSH2 0x1FED JUMP JUMPDEST SWAP3 POP DUP3 DUP3 ADD SWAP1 POP DUP1 DUP3 GT ISZERO PUSH2 0x28B6 JUMPI PUSH2 0x28B5 PUSH2 0x2859 JUMP JUMPDEST JUMPDEST SWAP3 SWAP2 POP POP JUMP JUMPDEST PUSH1 0x0 DUP2 SWAP1 POP DUP2 PUSH1 0x0 MSTORE PUSH1 0x20 PUSH1 0x0 KECCAK256 SWAP1 POP SWAP2 SWAP1 POP JUMP JUMPDEST PUSH1 0x0 PUSH1 0x20 PUSH1 0x1F DUP4 ADD DIV SWAP1 POP SWAP2 SWAP1 POP JUMP JUMPDEST PUSH1 0x0 DUP3 DUP3 SHL SWAP1 POP SWAP3 SWAP2 POP POP JUMP JUMPDEST PUSH1 0x0 PUSH1 0x8 DUP4 MUL PUSH2 0x291E PUSH32 0xFFFFFFFFFFFFFFFFFFFFFFFFFFFFFFFFFFFFFFFFFFFFFFFFFFFFFFFFFFFFFFFF DUP3 PUSH2 0x28E1 JUMP JUMPDEST PUSH2 0x2928 DUP7 DUP4 PUSH2 0x28E1 JUMP JUMPDEST SWAP6 POP DUP1 NOT DUP5 AND SWAP4 POP DUP1 DUP7 AND DUP5 OR SWAP3 POP POP POP SWAP4 SWAP3 POP POP POP JUMP JUMPDEST PUSH1 0x0 DUP2 SWAP1 POP SWAP2 SWAP1 POP JUMP JUMPDEST PUSH1 0x0 PUSH2 0x2965 PUSH2 0x2960 PUSH2 0x295B DUP5 PUSH2 0x1FED JUMP JUMPDEST PUSH2 0x2940 JUMP JUMPDEST PUSH2 0x1FED JUMP JUMPDEST SWAP1 POP SWAP2 SWAP1 POP JUMP JUMPDEST PUSH1 0x0 DUP2 SWAP1 POP SWAP2 SWAP1 POP JUMP JUMPDEST PUSH2 0x297F DUP4 PUSH2 0x294A JUMP JUMPDEST PUSH2 0x2993 PUSH2 0x298B DUP3 PUSH2 0x296C JUMP JUMPDEST DUP5 DUP5 SLOAD PUSH2 0x28EE JUMP JUMPDEST DUP3 SSTORE POP POP POP POP JUMP JUMPDEST PUSH1 0x0 SWAP1 JUMP JUMPDEST PUSH2 0x29A8 PUSH2 0x299B JUMP JUMPDEST PUSH2 0x29B3 DUP2 DUP5 DUP5 PUSH2 0x2976 JUMP JUMPDEST POP POP POP JUMP JUMPDEST JUMPDEST DUP2 DUP2 LT ISZERO PUSH2 0x29D7 JUMPI PUSH2 0x29CC PUSH1 0x0 DUP3 PUSH2 0x29A0 JUMP JUMPDEST PUSH1 0x1 DUP2 ADD SWAP1 POP PUSH2 0x29B9 JUMP JUMPDEST POP POP JUMP JUMPDEST PUSH1 0x1F DUP3 GT ISZERO PUSH2 0x2A1C JUMPI PUSH2 0x29ED DUP2 PUSH2 0x28BC JUMP JUMPDEST PUSH2 0x29F6 DUP5 PUSH2 0x28D1 JUMP JUMPDEST DUP2 ADD PUSH1 0x20 DUP6 LT ISZERO PUSH2 0x2A05 JUMPI DUP2 SWAP1 POP JUMPDEST PUSH2 0x2A19 PUSH2 0x2A11 DUP6 PUSH2 0x28D1 JUMP JUMPDEST DUP4 ADD DUP3 PUSH2 0x29B8 JUMP JUMPDEST POP POP JUMPDEST POP POP POP JUMP JUMPDEST PUSH1 0x0 DUP3 DUP3 SHR SWAP1 POP SWAP3 SWAP2 POP POP JUMP JUMPDEST PUSH1 0x0 PUSH2 0x2A3F PUSH1 0x0 NOT DUP5 PUSH1 0x8 MUL PUSH2 0x2A21 JUMP JUMPDEST NOT DUP1 DUP4 AND SWAP2 POP POP SWAP3 SWAP2 POP POP JUMP JUMPDEST PUSH1 0x0 PUSH2 0x2A58 DUP4 DUP4 PUSH2 0x2A2E JUMP JUMPDEST SWAP2 POP DUP3 PUSH1 0x2 MUL DUP3 OR SWAP1 POP SWAP3 SWAP2 POP POP JUMP JUMPDEST PUSH2 0x2A71 DUP3 PUSH2 0x1F3B JUMP JUMPDEST PUSH8 0xFFFFFFFFFFFFFFFF DUP2 GT ISZERO PUSH2 0x2A8A JUMPI PUSH2 0x2A89 PUSH2 0x2279 JUMP JUMPDEST JUMPDEST PUSH2 0x2A94 DUP3 SLOAD PUSH2 0x262C JUMP JUMPDEST PUSH2 0x2A9F DUP3 DUP3 DUP6 PUSH2 0x29DB JUMP JUMPDEST PUSH1 0x0 PUSH1 0x20 SWAP1 POP PUSH1 0x1F DUP4 GT PUSH1 0x1 DUP2 EQ PUSH2 0x2AD2 JUMPI PUSH1 0x0 DUP5 ISZERO PUSH2 0x2AC0 JUMPI DUP3 DUP8 ADD MLOAD SWAP1 POP JUMPDEST PUSH2 0x2ACA DUP6 DUP3 PUSH2 0x2A4C JUMP JUMPDEST DUP7 SSTORE POP PUSH2 0x2B32 JUMP JUMPDEST PUSH1 0x1F NOT DUP5 AND PUSH2 0x2AE0 DUP7 PUSH2 0x28BC JUMP JUMPDEST PUSH1 0x0 JUMPDEST DUP3 DUP2 LT ISZERO PUSH2 0x2B08 JUMPI DUP5 DUP10 ADD MLOAD DUP3 SSTORE PUSH1 0x1 DUP3 ADD SWAP2 POP PUSH1 0x20 DUP6 ADD SWAP5 POP PUSH1 0x20 DUP2 ADD SWAP1 POP PUSH2 0x2AE3 JUMP JUMPDEST DUP7 DUP4 LT ISZERO PUSH2 0x2B25 JUMPI DUP5 DUP10 ADD MLOAD PUSH2 0x2B21 PUSH1 0x1F DUP10 AND DUP3 PUSH2 0x2A2E JUMP JUMPDEST DUP4 SSTORE POP JUMPDEST PUSH1 0x1 PUSH1 0x2 DUP9 MUL ADD DUP9 SSTORE POP POP POP JUMPDEST POP POP POP POP POP POP JUMP JUMPDEST PUSH32 0x4552433732313A20696E76616C696420746F6B656E2049440000000000000000 PUSH1 0x0 DUP3 ADD MSTORE POP JUMP JUMPDEST PUSH1 0x0 PUSH2 0x2B70 PUSH1 0x18 DUP4 PUSH2 0x1F46 JUMP JUMPDEST SWAP2 POP PUSH2 0x2B7B DUP3 PUSH2 0x2B3A JUMP JUMPDEST PUSH1 0x20 DUP3 ADD SWAP1 POP SWAP2 SWAP1 POP JUMP JUMPDEST PUSH1 0x0 PUSH1 0x20 DUP3 ADD SWAP1 POP DUP2 DUP2 SUB PUSH1 0x0 DUP4 ADD MSTORE PUSH2 0x2B9F DUP2 PUSH2 0x2B63 JUMP JUMPDEST SWAP1 POP SWAP2 SWAP1 POP JUMP JUMPDEST PUSH32 0x4552433732313A2061646472657373207A65726F206973206E6F742061207661 PUSH1 0x0 DUP3 ADD MSTORE PUSH32 0x6C6964206F776E65720000000000000000000000000000000000000000000000 PUSH1 0x20 DUP3 ADD MSTORE POP JUMP JUMPDEST PUSH1 0x0 PUSH2 0x2C02 PUSH1 0x29 DUP4 PUSH2 0x1F46 JUMP JUMPDEST SWAP2 POP PUSH2 0x2C0D DUP3 PUSH2 0x2BA6 JUMP JUMPDEST PUSH1 0x40 DUP3 ADD SWAP1 POP SWAP2 SWAP1 POP JUMP JUMPDEST PUSH1 0x0 PUSH1 0x20 DUP3 ADD SWAP1 POP DUP2 DUP2 SUB PUSH1 0x0 DUP4 ADD MSTORE PUSH2 0x2C31 DUP2 PUSH2 0x2BF5 JUMP JUMPDEST SWAP1 POP SWAP2 SWAP1 POP JUMP JUMPDEST PUSH1 0x0 PUSH2 0x2C43 DUP3 PUSH2 0x1FED JUMP JUMPDEST SWAP2 POP PUSH32 0xFFFFFFFFFFFFFFFFFFFFFFFFFFFFFFFFFFFFFFFFFFFFFFFFFFFFFFFFFFFFFFFF DUP3 SUB PUSH2 0x2C75 JUMPI PUSH2 0x2C74 PUSH2 0x2859 JUMP JUMPDEST JUMPDEST PUSH1 0x1 DUP3 ADD SWAP1 POP SWAP2 SWAP1 POP JUMP JUMPDEST PUSH1 0x0 DUP2 SWAP1 POP SWAP3 SWAP2 POP POP JUMP JUMPDEST PUSH1 0x0 PUSH2 0x2C96 DUP3 PUSH2 0x1F3B JUMP JUMPDEST PUSH2 0x2CA0 DUP2 DUP6 PUSH2 0x2C80 JUMP JUMPDEST SWAP4 POP PUSH2 0x2CB0 DUP2 DUP6 PUSH1 0x20 DUP7 ADD PUSH2 0x1F57 JUMP JUMPDEST DUP1 DUP5 ADD SWAP2 POP POP SWAP3 SWAP2 POP POP JUMP JUMPDEST PUSH1 0x0 PUSH2 0x2CC8 DUP3 DUP6 PUSH2 0x2C8B JUMP JUMPDEST SWAP2 POP PUSH2 0x2CD4 DUP3 DUP5 PUSH2 0x2C8B JUMP JUMPDEST SWAP2 POP DUP2 SWAP1 POP SWAP4 SWAP3 POP POP POP JUMP JUMPDEST PUSH32 0x4552433732313A207472616E736665722066726F6D20696E636F727265637420 PUSH1 0x0 DUP3 ADD MSTORE PUSH32 0x6F776E6572000000000000000000000000000000000000000000000000000000 PUSH1 0x20 DUP3 ADD MSTORE POP JUMP JUMPDEST PUSH1 0x0 PUSH2 0x2D3C PUSH1 0x25 DUP4 PUSH2 0x1F46 JUMP JUMPDEST SWAP2 POP PUSH2 0x2D47 DUP3 PUSH2 0x2CE0 JUMP JUMPDEST PUSH1 0x40 DUP3 ADD SWAP1 POP SWAP2 SWAP1 POP JUMP JUMPDEST PUSH1 0x0 PUSH1 0x20 DUP3 ADD SWAP1 POP DUP2 DUP2 SUB PUSH1 0x0 DUP4 ADD MSTORE PUSH2 0x2D6B DUP2 PUSH2 0x2D2F JUMP JUMPDEST SWAP1 POP SWAP2 SWAP1 POP JUMP JUMPDEST PUSH32 0x4552433732313A207472616E7366657220746F20746865207A65726F20616464 PUSH1 0x0 DUP3 ADD MSTORE PUSH32 0x7265737300000000000000000000000000000000000000000000000000000000 PUSH1 0x20 DUP3 ADD MSTORE POP JUMP JUMPDEST PUSH1 0x0 PUSH2 0x2DCE PUSH1 0x24 DUP4 PUSH2 0x1F46 JUMP JUMPDEST SWAP2 POP PUSH2 0x2DD9 DUP3 PUSH2 0x2D72 JUMP JUMPDEST PUSH1 0x40 DUP3 ADD SWAP1 POP SWAP2 SWAP1 POP JUMP JUMPDEST PUSH1 0x0 PUSH1 0x20 DUP3 ADD SWAP1 POP DUP2 DUP2 SUB PUSH1 0x0 DUP4 ADD MSTORE PUSH2 0x2DFD DUP2 PUSH2 0x2DC1 JUMP JUMPDEST SWAP1 POP SWAP2 SWAP1 POP JUMP JUMPDEST PUSH32 0x4552433732313A20617070726F766520746F2063616C6C657200000000000000 PUSH1 0x0 DUP3 ADD MSTORE POP JUMP JUMPDEST PUSH1 0x0 PUSH2 0x2E3A PUSH1 0x19 DUP4 PUSH2 0x1F46 JUMP JUMPDEST SWAP2 POP PUSH2 0x2E45 DUP3 PUSH2 0x2E04 JUMP JUMPDEST PUSH1 0x20 DUP3 ADD SWAP1 POP SWAP2 SWAP1 POP JUMP JUMPDEST PUSH1 0x0 PUSH1 0x20 DUP3 ADD SWAP1 POP DUP2 DUP2 SUB PUSH1 0x0 DUP4 ADD MSTORE PUSH2 0x2E69 DUP2 PUSH2 0x2E2D JUMP JUMPDEST SWAP1 POP SWAP2 SWAP1 POP JUMP JUMPDEST PUSH32 0x4552433732313A207472616E7366657220746F206E6F6E204552433732315265 PUSH1 0x0 DUP3 ADD MSTORE PUSH32 0x63656976657220696D706C656D656E7465720000000000000000000000000000 PUSH1 0x20 DUP3 ADD MSTORE POP JUMP JUMPDEST PUSH1 0x0 PUSH2 0x2ECC PUSH1 0x32 DUP4 PUSH2 0x1F46 JUMP JUMPDEST SWAP2 POP PUSH2 0x2ED7 DUP3 PUSH2 0x2E70 JUMP JUMPDEST PUSH1 0x40 DUP3 ADD SWAP1 POP SWAP2 SWAP1 POP JUMP JUMPDEST PUSH1 0x0 PUSH1 0x20 DUP3 ADD SWAP1 POP DUP2 DUP2 SUB PUSH1 0x0 DUP4 ADD MSTORE PUSH2 0x2EFB DUP2 PUSH2 0x2EBF JUMP JUMPDEST SWAP1 POP SWAP2 SWAP1 POP JUMP JUMPDEST PUSH32 0x4E487B7100000000000000000000000000000000000000000000000000000000 PUSH1 0x0 MSTORE PUSH1 0x12 PUSH1 0x4 MSTORE PUSH1 0x24 PUSH1 0x0 REVERT JUMPDEST PUSH1 0x0 PUSH2 0x2F3C DUP3 PUSH2 0x1FED JUMP JUMPDEST SWAP2 POP PUSH2 0x2F47 DUP4 PUSH2 0x1FED JUMP JUMPDEST SWAP3 POP DUP3 DUP3 SUB SWAP1 POP DUP2 DUP2 GT ISZERO PUSH2 0x2F5F JUMPI PUSH2 0x2F5E PUSH2 0x2859 JUMP JUMPDEST JUMPDEST SWAP3 SWAP2 POP POP JUMP JUMPDEST PUSH1 0x0 DUP2 MLOAD SWAP1 POP SWAP2 SWAP1 POP JUMP JUMPDEST PUSH1 0x0 DUP3 DUP3 MSTORE PUSH1 0x20 DUP3 ADD SWAP1 POP SWAP3 SWAP2 POP POP JUMP JUMPDEST PUSH1 0x0 PUSH2 0x2F8C DUP3 PUSH2 0x2F65 JUMP JUMPDEST PUSH2 0x2F96 DUP2 DUP6 PUSH2 0x2F70 JUMP JUMPDEST SWAP4 POP PUSH2 0x2FA6 DUP2 DUP6 PUSH1 0x20 DUP7 ADD PUSH2 0x1F57 JUMP JUMPDEST PUSH2 0x2FAF DUP2 PUSH2 0x1F81 JUMP JUMPDEST DUP5 ADD SWAP2 POP POP SWAP3 SWAP2 POP POP JUMP JUMPDEST PUSH1 0x0 PUSH1 0x80 DUP3 ADD SWAP1 POP PUSH2 0x2FCF PUSH1 0x0 DUP4 ADD DUP8 PUSH2 0x2082 JUMP JUMPDEST PUSH2 0x2FDC PUSH1 0x20 DUP4 ADD DUP7 PUSH2 0x2082 JUMP JUMPDEST PUSH2 0x2FE9 PUSH1 0x40 DUP4 ADD DUP6 PUSH2 0x2118 JUMP JUMPDEST DUP2 DUP2 SUB PUSH1 0x60 DUP4 ADD MSTORE PUSH2 0x2FFB DUP2 DUP5 PUSH2 0x2F81 JUMP JUMPDEST SWAP1 POP SWAP6 SWAP5 POP POP POP POP POP JUMP JUMPDEST PUSH1 0x0 DUP2 MLOAD SWAP1 POP PUSH2 0x3015 DUP2 PUSH2 0x1EAC JUMP JUMPDEST SWAP3 SWAP2 POP POP JUMP JUMPDEST PUSH1 0x0 PUSH1 0x20 DUP3 DUP5 SUB SLT ISZERO PUSH2 0x3031 JUMPI PUSH2 0x3030 PUSH2 0x1E76 JUMP JUMPDEST JUMPDEST PUSH1 0x0 PUSH2 0x303F DUP5 DUP3 DUP6 ADD PUSH2 0x3006 JUMP JUMPDEST SWAP2 POP POP SWAP3 SWAP2 POP POP JUMP JUMPDEST PUSH32 0x4552433732313A206D696E7420746F20746865207A65726F2061646472657373 PUSH1 0x0 DUP3 ADD MSTORE POP JUMP JUMPDEST PUSH1 0x0 PUSH2 0x307E PUSH1 0x20 DUP4 PUSH2 0x1F46 JUMP JUMPDEST SWAP2 POP PUSH2 0x3089 DUP3 PUSH2 0x3048 JUMP JUMPDEST PUSH1 0x20 DUP3 ADD SWAP1 POP SWAP2 SWAP1 POP JUMP JUMPDEST PUSH1 0x0 PUSH1 0x20 DUP3 ADD SWAP1 POP DUP2 DUP2 SUB PUSH1 0x0 DUP4 ADD MSTORE PUSH2 0x30AD DUP2 PUSH2 0x3071 JUMP JUMPDEST SWAP1 POP SWAP2 SWAP1 POP JUMP JUMPDEST PUSH32 0x4552433732313A20746F6B656E20616C7265616479206D696E74656400000000 PUSH1 0x0 DUP3 ADD MSTORE POP JUMP JUMPDEST PUSH1 0x0 PUSH2 0x30EA PUSH1 0x1C DUP4 PUSH2 0x1F46 JUMP JUMPDEST SWAP2 POP PUSH2 0x30F5 DUP3 PUSH2 0x30B4 JUMP JUMPDEST PUSH1 0x20 DUP3 ADD SWAP1 POP SWAP2 SWAP1 POP JUMP JUMPDEST PUSH1 0x0 PUSH1 0x20 DUP3 ADD SWAP1 POP DUP2 DUP2 SUB PUSH1 0x0 DUP4 ADD MSTORE PUSH2 0x3119 DUP2 PUSH2 0x30DD JUMP JUMPDEST SWAP1 POP SWAP2 SWAP1 POP JUMP INVALID LOG2 PUSH5 0x6970667358 0x22 SLT KECCAK256 0xAB 0xDC 0xC1 JUMPDEST PUSH2 0x36EF BYTE PUSH7 0x30B55A4D04AEF 0xDB LOG1 JUMPDEST 0xB1 DUP2 GASPRICE CREATE2 0xD2 0x2A SUB DUP4 0xAF 0xD2 DELEGATECALL SHR 0xEB PUSH5 0x736F6C6343 STOP ADDMOD GT STOP CALLER "},"methodIdentifiers":{"approve(address,uint256)":"095ea7b3","balanceOf(address)":"70a08231","getApproved(uint256)":"081812fc","getBalance()":"12065fe0","getDomain(uint256)":"1a7a98e2","isApprovedForAll(address,address)":"e985e9c5","list(string,uint256)":"4a878dfa","maxSupply()":"d5abeb01","mint(uint256)":"a0712d68","name()":"06fdde03","owner()":"8da5cb5b","ownerOf(uint256)":"6352211e","safeTransferFrom(address,address,uint256)":"42842e0e","safeTransferFrom(address,address,uint256,bytes)":"b88d4fde","setApprovalForAll(address,bool)":"a22cb465","supportsInterface(bytes4)":"01ffc9a7","symbol()":"95d89b41","tokenURI(uint256)":"c87b56dd","totalSupply()":"18160ddd","transferFrom(address,address,uint256)":"23b872dd","withdraw()":"3ccfd60b"}}}}}