{
  "_format": "hh-sol-artifact-1",
  "contractName": "ETHDaddy",
  "sourceName": "contracts/ETHDaddy.sol",
  "abi": [
    {
      "inputs": [
        {
          "internalType": "string",
          "name": "_name",
          "type": "string"
        },
        {
          "internalType": "string",
          "name": "_symbol",
          "type": "string"
        }
      ],
      "stateMutability": "nonpayable",
      "type": "constructor"
    },
    {
      "anonymous": false,
      "inputs": [
        {
          "indexed": true,
          "internalType": "address",
          "name": "owner",
          "type": "address"
        },
        {
          "indexed": true,
          "internalType": "address",
          "name": "approved",
          "type": "address"
        },
        {
          "indexed": true,
          "internalType": "uint256",
          "name": "tokenId",
          "type": "uint256"
        }
      ],
      "name": "Approval",
      "type": "event"
    },
    {
      "anonymous": false,
      "inputs": [
        {
          "indexed": true,
          "internalType": "address",
          "name": "owner",
          "type": "address"
        },
        {
          "indexed": true,
          "internalType": "address",
          "name": "operator",
          "type": "address"
        },
        {
          "indexed": false,
          "internalType": "bool",
          "name": "approved",
          "type": "bool"
        }
      ],
      "name": "ApprovalForAll",
      "type": "event"
    },
    {
      "anonymous": false,
      "inputs": [
        {
          "indexed": true,
          "internalType": "address",
          "name": "from",
          "type": "address"
        },
        {
          "indexed": true,
          "internalType": "address",
          "name": "to",
          "type": "address"
        },
        {
          "indexed": true,
          "internalType": "uint256",
          "name": "tokenId",
          "type": "uint256"
        }
      ],
      "name": "Transfer",
      "type": "event"
    },
    {
      "inputs": [
        {
          "internalType": "address",
          "name": "to",
          "type": "address"
        },
        {
          "internalType": "uint256",
          "name": "tokenId",
          "type": "uint256"
        }
      ],
      "name": "approve",
      "outputs": [],
      "stateMutability": "nonpayable",
      "type": "function"
    },
    {
      "inputs": [
        {
          "internalType": "address",
          "name": "owner",
          "type": "address"
        }
      ],
      "name": "balanceOf",
      "outputs": [
        {
          "internalType": "uint256",
          "name": "",
          "type": "uint256"
        }
      ],
      "stateMutability": "view",
      "type": "function"
    },
    {
      "inputs": [
        {
          "internalType": "uint256",
          "name": "tokenId",
          "type": "uint256"
        }
      ],
      "name": "getApproved",
      "outputs": [
        {
          "internalType": "address",
          "name": "",
          "type": "address"
        }
      ],
      "stateMutability": "view",
      "type": "function"
    },
    {
      "inputs": [],
      "name": "getBalance",
      "outputs": [
        {
          "internalType": "uint256",
          "name": "",
          "type": "uint256"
        }
      ],
      "stateMutability": "view",
      "type": "function"
    },
    {
      "inputs": [
        {
          "internalType": "uint256",
          "name": "_id",
          "type": "uint256"
        }
      ],
      "name": "getDomain",
      "outputs": [
        {
          "components": [
            {
              "internalType": "string",
              "name": "name",
              "type": "string"
            },
            {
              "internalType": "uint256",
              "name": "cost",
              "type": "uint256"
            },
            {
              "internalType": "bool",
              "name": "isOwned",
              "type": "bool"
            }
          ],
          "internalType": "struct ETHDaddy.Domain",
          "name": "",
          "type": "tuple"
        }
      ],
      "stateMutability": "view",
      "type": "function"
    },
    {
      "inputs": [
        {
          "internalType": "address",
          "name": "owner",
          "type": "address"
        },
        {
          "internalType": "address",
          "name": "operator",
          "type": "address"
        }
      ],
      "name": "isApprovedForAll",
      "outputs": [
        {
          "internalType": "bool",
          "name": "",
          "type": "bool"
        }
      ],
      "stateMutability": "view",
      "type": "function"
    },
    {
      "inputs": [
        {
          "internalType": "string",
          "name": "_name",
          "type": "string"
        },
        {
          "internalType": "uint256",
          "name": "_cost",
          "type": "uint256"
        }
      ],
      "name": "list",
      "outputs": [],
      "stateMutability": "nonpayable",
      "type": "function"
    },
    {
      "inputs": [],
      "name": "maxSupply",
      "outputs": [
        {
          "internalType": "uint256",
          "name": "",
          "type": "uint256"
        }
      ],
      "stateMutability": "view",
      "type": "function"
    },
    {
      "inputs": [
        {
          "internalType": "uint256",
          "name": "_id",
          "type": "uint256"
        }
      ],
      "name": "mint",
      "outputs": [],
      "stateMutability": "payable",
      "type": "function"
    },
    {
      "inputs": [],
      "name": "name",
      "outputs": [
        {
          "internalType": "string",
          "name": "",
          "type": "string"
        }
      ],
      "stateMutability": "view",
      "type": "function"
    },
    {
      "inputs": [],
      "name": "owner",
      "outputs": [
        {
          "internalType": "address",
          "name": "",
          "type": "address"
        }
      ],
      "stateMutability": "view",
      "type": "function"
    },
    {
      "inputs": [
        {
          "internalType": "uint256",
          "name": "tokenId",
          "type": "uint256"
        }
      ],
      "name": "ownerOf",
      "outputs": [
        {
          "internalType": "address",
          "name": "",
          "type": "address"
        }
      ],
      "stateMutability": "view",
      "type": "function"
    },
    {
      "inputs": [
        {
          "internalType": "address",
          "name": "from",
          "type": "address"
        },
        {
          "internalType": "address",
          "name": "to",
          "type": "address"
        },
        {
          "internalType": "uint256",
          "name": "tokenId",
          "type": "uint256"
        }
      ],
      "name": "safeTransferFrom",
      "outputs": [],
      "stateMutability": "nonpayable",
      "type": "function"
    },
    {
      "inputs": [
        {
          "internalType": "address",
          "name": "from",
          "type": "address"
        },
        {
          "internalType": "address",
          "name": "to",
          "type": "address"
        },
        {
          "internalType": "uint256",
          "name": "tokenId",
          "type": "uint256"
        },
        {
          "internalType": "bytes",
          "name": "data",
          "type": "bytes"
        }
      ],
      "name": "safeTransferFrom",
      "outputs": [],
      "stateMutability": "nonpayable",
      "type": "function"
    },
    {
      "inputs": [
        {
          "internalType": "address",
          "name": "operator",
          "type": "address"
        },
        {
          "internalType": "bool",
          "name": "approved",
          "type": "bool"
        }
      ],
      "name": "setApprovalForAll",
      "outputs": [],
      "stateMutability": "nonpayable",
      "type": "function"
    },
    {
      "inputs": [
        {
          "internalType": "bytes4",
          "name": "interfaceId",
          "type": "bytes4"
        }
      ],
      "name": "supportsInterface",
      "outputs": [
        {
          "internalType": "bool",
          "name": "",
          "type": "bool"
        }
      ],
      "stateMutability": "view",
      "type": "function"
    },
    {
      "inputs": [],
      "name": "symbol",
      "outputs": [
        {
          "internalType": "string",
          "name": "",
          "type": "string"
        }
      ],
      "stateMutability": "view",
      "type": "function"
    },
    {
      "inputs": [
        {
          "internalType": "uint256",
          "name": "tokenId",
          "type": "uint256"
        }
      ],
      "name": "tokenURI",
      "outputs": [
        {
          "internalType": "string",
          "name": "",
          "type": "string"
        }
      ],
      "stateMutability": "view",
      "type": "function"
    },
    {
      "inputs": [],
      "name": "totalSupply",
      "outputs": [
        {
          "internalType": "uint256",
          "name": "",
          "type": "uint256"
        }
      ],
      "stateMutability": "view",
      "type": "function"
    },
    {
      "inputs": [
        {
          "internalType": "address",
          "name": "from",
          "type": "address"
        },
        {
          "internalType": "address",
          "name": "to",
          "type": "address"
        },
        {
          "internalType": "uint256",
          "name": "tokenId",
          "type": "uint256"
        }
      ],
      "name": "transferFrom",
      "outputs": [],
      "stateMutability": "nonpayable",
      "type": "function"
    },
    {
      "inputs": [],
      "name": "withdraw",
      "outputs": [],
      "stateMutability": "nonpayable",
      "type": "function"
    }
  ],
  "bytecode": "0x60806040523480156200001157600080fd5b50604051620037583803806200375883398181016040528101906200003791906200023b565b818181600090816200004a91906200050b565b5080600190816200005c91906200050b565b50505033600660006101000a81548173ffffffffffffffffffffffffffffffffffffffff021916908373ffffffffffffffffffffffffffffffffffffffff1602179055505050620005f2565b6000604051905090565b600080fd5b600080fd5b600080fd5b600080fd5b6000601f19601f8301169050919050565b7f4e487b7100000000000000000000000000000000000000000000000000000000600052604160045260246000fd5b6200011182620000c6565b810181811067ffffffffffffffff82111715620001335762000132620000d7565b5b80604052505050565b600062000148620000a8565b905062000156828262000106565b919050565b600067ffffffffffffffff821115620001795762000178620000d7565b5b6200018482620000c6565b9050602081019050919050565b60005b83811015620001b157808201518184015260208101905062000194565b60008484015250505050565b6000620001d4620001ce846200015b565b6200013c565b905082815260208101848484011115620001f357620001f2620000c1565b5b6200020084828562000191565b509392505050565b600082601f83011262000220576200021f620000bc565b5b815162000232848260208601620001bd565b91505092915050565b60008060408385031215620002555762000254620000b2565b5b600083015167ffffffffffffffff811115620002765762000275620000b7565b5b620002848582860162000208565b925050602083015167ffffffffffffffff811115620002a857620002a7620000b7565b5b620002b68582860162000208565b9150509250929050565b600081519050919050565b7f4e487b7100000000000000000000000000000000000000000000000000000000600052602260045260246000fd5b600060028204905060018216806200031357607f821691505b602082108103620003295762000328620002cb565b5b50919050565b60008190508160005260206000209050919050565b60006020601f8301049050919050565b600082821b905092915050565b600060088302620003937fffffffffffffffffffffffffffffffffffffffffffffffffffffffffffffffff8262000354565b6200039f868362000354565b95508019841693508086168417925050509392505050565b6000819050919050565b6000819050919050565b6000620003ec620003e6620003e084620003b7565b620003c1565b620003b7565b9050919050565b6000819050919050565b6200040883620003cb565b620004206200041782620003f3565b84845462000361565b825550505050565b600090565b6200043762000428565b62000444818484620003fd565b505050565b5b818110156200046c57620004606000826200042d565b6001810190506200044a565b5050565b601f821115620004bb5762000485816200032f565b620004908462000344565b81016020851015620004a0578190505b620004b8620004af8562000344565b83018262000449565b50505b505050565b600082821c905092915050565b6000620004e060001984600802620004c0565b1980831691505092915050565b6000620004fb8383620004cd565b9150826002028217905092915050565b6200051682620002c0565b67ffffffffffffffff811115620005325762000531620000d7565b5b6200053e8254620002fa565b6200054b82828562000470565b600060209050601f8311600181146200058357600084156200056e578287015190505b6200057a8582620004ed565b865550620005ea565b601f19841662000593866200032f565b60005b82811015620005bd5784890151825560018201915060208501945060208101905062000596565b86831015620005dd5784890151620005d9601f891682620004cd565b8355505b6001600288020188555050505b505050505050565b61315680620006026000396000f3fe60806040526004361061012a5760003560e01c80634a878dfa116100ab578063a0712d681161006f578063a0712d68146103f2578063a22cb4651461040e578063b88d4fde14610437578063c87b56dd14610460578063d5abeb011461049d578063e985e9c5146104c85761012a565b80634a878dfa146102f95780636352211e1461032257806370a082311461035f5780638da5cb5b1461039c57806395d89b41146103c75761012a565b806318160ddd116100f257806318160ddd146102285780631a7a98e21461025357806323b872dd146102905780633ccfd60b146102b957806342842e0e146102d05761012a565b806301ffc9a71461012f57806306fdde031461016c578063081812fc14610197578063095ea7b3146101d457806312065fe0146101fd575b600080fd5b34801561013b57600080fd5b5061015660048036038101906101519190611ed8565b610505565b6040516101639190611f20565b60405180910390f35b34801561017857600080fd5b506101816105e7565b60405161018e9190611fcb565b60405180910390f35b3480156101a357600080fd5b506101be60048036038101906101b99190612023565b610679565b6040516101cb9190612091565b60405180910390f35b3480156101e057600080fd5b506101fb60048036038101906101f691906120d8565b6106bf565b005b34801561020957600080fd5b506102126107d6565b60405161021f9190612127565b60405180910390f35b34801561023457600080fd5b5061023d6107de565b60405161024a9190612127565b60405180910390f35b34801561025f57600080fd5b5061027a60048036038101906102759190612023565b6107e4565b60405161028791906121fa565b60405180910390f35b34801561029c57600080fd5b506102b760048036038101906102b2919061221c565b6108c8565b005b3480156102c557600080fd5b506102ce610928565b005b3480156102dc57600080fd5b506102f760048036038101906102f2919061221c565b610a1d565b005b34801561030557600080fd5b50610320600480360381019061031b91906123a4565b610a3d565b005b34801561032e57600080fd5b5061034960048036038101906103449190612023565b610b26565b6040516103569190612091565b60405180910390f35b34801561036b57600080fd5b5061038660048036038101906103819190612400565b610bac565b6040516103939190612127565b60405180910390f35b3480156103a857600080fd5b506103b1610c63565b6040516103be9190612091565b60405180910390f35b3480156103d357600080fd5b506103dc610c89565b6040516103e99190611fcb565b60405180910390f35b61040c60048036038101906104079190612023565b610d1b565b005b34801561041a57600080fd5b5061043560048036038101906104309190612459565b610de1565b005b34801561044357600080fd5b5061045e6004803603810190610459919061253a565b610df7565b005b34801561046c57600080fd5b5061048760048036038101906104829190612023565b610e59565b6040516104949190611fcb565b60405180910390f35b3480156104a957600080fd5b506104b2610ec1565b6040516104bf9190612127565b60405180910390f35b3480156104d457600080fd5b506104ef60048036038101906104ea91906125bd565b610ec7565b6040516104fc9190611f20565b60405180910390f35b60007f80ac58cd000000000000000000000000000000000000000000000000000000007bffffffffffffffffffffffffffffffffffffffffffffffffffffffff1916827bffffffffffffffffffffffffffffffffffffffffffffffffffffffff191614806105d057507f5b5e139f000000000000000000000000000000000000000000000000000000007bffffffffffffffffffffffffffffffffffffffffffffffffffffffff1916827bffffffffffffffffffffffffffffffffffffffffffffffffffffffff1916145b806105e057506105df82610f5b565b5b9050919050565b6060600080546105f69061262c565b80601f01602080910402602001604051908101604052809291908181526020018280546106229061262c565b801561066f5780601f106106445761010080835404028352916020019161066f565b820191906000526020600020905b81548152906001019060200180831161065257829003601f168201915b5050505050905090565b600061068482610fc5565b6004600083815260200190815260200160002060009054906101000a900473ffffffffffffffffffffffffffffffffffffffff169050919050565b60006106ca82610b26565b90508073ffffffffffffffffffffffffffffffffffffffff168373ffffffffffffffffffffffffffffffffffffffff160361073a576040517f08c379a0000000000000000000000000000000000000000000000000000000008152600401610731906126cf565b60405180910390fd5b8073ffffffffffffffffffffffffffffffffffffffff16610759611010565b73ffffffffffffffffffffffffffffffffffffffff161480610788575061078781610782611010565b610ec7565b5b6107c7576040517f08c379a00000000000000000000000000000000000000000000000000000000081526004016107be90612761565b60405180910390fd5b6107d18383611018565b505050565b600047905090565b60085481565b6107ec611e49565b6009600083815260200190815260200160002060405180606001604052908160008201805461081a9061262c565b80601f01602080910402602001604051908101604052809291908181526020018280546108469061262c565b80156108935780601f1061086857610100808354040283529160200191610893565b820191906000526020600020905b81548152906001019060200180831161087657829003601f168201915b50505050508152602001600182015481526020016002820160009054906101000a900460ff1615151515815250509050919050565b6108d96108d3611010565b826110d1565b610918576040517f08c379a000000000000000000000000000000000000000000000000000000000815260040161090f906127f3565b60405180910390fd5b610923838383611166565b505050565b600660009054906101000a900473ffffffffffffffffffffffffffffffffffffffff1673ffffffffffffffffffffffffffffffffffffffff163373ffffffffffffffffffffffffffffffffffffffff161461098257600080fd5b6000600660009054906101000a900473ffffffffffffffffffffffffffffffffffffffff1673ffffffffffffffffffffffffffffffffffffffff16476040516109ca90612844565b60006040518083038185875af1925050503d8060008114610a07576040519150601f19603f3d011682016040523d82523d6000602084013e610a0c565b606091505b5050905080610a1a57600080fd5b50565b610a3883838360405180602001604052806000815250610df7565b505050565b600660009054906101000a900473ffffffffffffffffffffffffffffffffffffffff1673ffffffffffffffffffffffffffffffffffffffff163373ffffffffffffffffffffffffffffffffffffffff1614610a9757600080fd5b6001600754610aa69190612888565b6007819055506040518060600160405280838152602001828152602001600015158152506009600060075481526020019081526020016000206000820151816000019081610af49190612a68565b506020820151816001015560408201518160020160006101000a81548160ff0219169083151502179055509050505050565b600080610b328361145f565b9050600073ffffffffffffffffffffffffffffffffffffffff168173ffffffffffffffffffffffffffffffffffffffff1603610ba3576040517f08c379a0000000000000000000000000000000000000000000000000000000008152600401610b9a90612b86565b60405180910390fd5b80915050919050565b60008073ffffffffffffffffffffffffffffffffffffffff168273ffffffffffffffffffffffffffffffffffffffff1603610c1c576040517f08c379a0000000000000000000000000000000000000000000000000000000008152600401610c1390612c18565b60405180910390fd5b600360008373ffffffffffffffffffffffffffffffffffffffff1673ffffffffffffffffffffffffffffffffffffffff168152602001908152602001600020549050919050565b600660009054906101000a900473ffffffffffffffffffffffffffffffffffffffff1681565b606060018054610c989061262c565b80601f0160208091040260200160405190810160405280929190818152602001828054610cc49061262c565b8015610d115780601f10610ce657610100808354040283529160200191610d11565b820191906000526020600020905b815481529060010190602001808311610cf457829003601f168201915b5050505050905090565b60008103610d2857600080fd5b600754811115610d3757600080fd5b600015156009600083815260200190815260200160002060020160009054906101000a900460ff16151514610d6b57600080fd5b60096000828152602001908152602001600020600101543414610d8d57600080fd5b60016009600083815260200190815260200160002060020160006101000a81548160ff02191690831515021790555060086000815480929190610dcf90612c38565b9190505550610dde338261149c565b50565b610df3610dec611010565b83836114ba565b5050565b610e08610e02611010565b836110d1565b610e47576040517f08c379a0000000000000000000000000000000000000000000000000000000008152600401610e3e906127f3565b60405180910390fd5b610e5384848484611626565b50505050565b6060610e6482610fc5565b6000610e6e611682565b90506000815111610e8e5760405180602001604052806000815250610eb9565b80610e9884611699565b604051602001610ea9929190612cbc565b6040516020818303038152906040525b915050919050565b60075481565b6000600560008473ffffffffffffffffffffffffffffffffffffffff1673ffffffffffffffffffffffffffffffffffffffff16815260200190815260200160002060008373ffffffffffffffffffffffffffffffffffffffff1673ffffffffffffffffffffffffffffffffffffffff16815260200190815260200160002060009054906101000a900460ff16905092915050565b60007f01ffc9a7000000000000000000000000000000000000000000000000000000007bffffffffffffffffffffffffffffffffffffffffffffffffffffffff1916827bffffffffffffffffffffffffffffffffffffffffffffffffffffffff1916149050919050565b610fce81611767565b61100d576040517f08c379a000000000000000000000000000000000000000000000000000000000815260040161100490612b86565b60405180910390fd5b50565b600033905090565b816004600083815260200190815260200160002060006101000a81548173ffffffffffffffffffffffffffffffffffffffff021916908373ffffffffffffffffffffffffffffffffffffffff160217905550808273ffffffffffffffffffffffffffffffffffffffff1661108b83610b26565b73ffffffffffffffffffffffffffffffffffffffff167f8c5be1e5ebec7d5bd14f71427d1e84f3dd0314c0f7b2291e5b200ac8c7c3b92560405160405180910390a45050565b6000806110dd83610b26565b90508073ffffffffffffffffffffffffffffffffffffffff168473ffffffffffffffffffffffffffffffffffffffff16148061111f575061111e8185610ec7565b5b8061115d57508373ffffffffffffffffffffffffffffffffffffffff1661114584610679565b73ffffffffffffffffffffffffffffffffffffffff16145b91505092915050565b8273ffffffffffffffffffffffffffffffffffffffff1661118682610b26565b73ffffffffffffffffffffffffffffffffffffffff16146111dc576040517f08c379a00000000000000000000000000000000000000000000000000000000081526004016111d390612d52565b60405180910390fd5b600073ffffffffffffffffffffffffffffffffffffffff168273ffffffffffffffffffffffffffffffffffffffff160361124b576040517f08c379a000000000000000000000000000000000000000000000000000000000815260040161124290612de4565b60405180910390fd5b61125883838360016117a8565b8273ffffffffffffffffffffffffffffffffffffffff1661127882610b26565b73ffffffffffffffffffffffffffffffffffffffff16146112ce576040517f08c379a00000000000000000000000000000000000000000000000000000000081526004016112c590612d52565b60405180910390fd5b6004600082815260200190815260200160002060006101000a81549073ffffffffffffffffffffffffffffffffffffffff02191690556001600360008573ffffffffffffffffffffffffffffffffffffffff1673ffffffffffffffffffffffffffffffffffffffff168152602001908152602001600020600082825403925050819055506001600360008473ffffffffffffffffffffffffffffffffffffffff1673ffffffffffffffffffffffffffffffffffffffff16815260200190815260200160002060008282540192505081905550816002600083815260200190815260200160002060006101000a81548173ffffffffffffffffffffffffffffffffffffffff021916908373ffffffffffffffffffffffffffffffffffffffff160217905550808273ffffffffffffffffffffffffffffffffffffffff168473ffffffffffffffffffffffffffffffffffffffff167fddf252ad1be2c89b69c2b068fc378daa952ba7f163c4a11628f55a4df523b3ef60405160405180910390a461145a83838360016118ce565b505050565b60006002600083815260200190815260200160002060009054906101000a900473ffffffffffffffffffffffffffffffffffffffff169050919050565b6114b68282604051806020016040528060008152506118d4565b5050565b8173ffffffffffffffffffffffffffffffffffffffff168373ffffffffffffffffffffffffffffffffffffffff1603611528576040517f08c379a000000000000000000000000000000000000000000000000000000000815260040161151f90612e50565b60405180910390fd5b80600560008573ffffffffffffffffffffffffffffffffffffffff1673ffffffffffffffffffffffffffffffffffffffff16815260200190815260200160002060008473ffffffffffffffffffffffffffffffffffffffff1673ffffffffffffffffffffffffffffffffffffffff16815260200190815260200160002060006101000a81548160ff0219169083151502179055508173ffffffffffffffffffffffffffffffffffffffff168373ffffffffffffffffffffffffffffffffffffffff167f17307eab39ab6107e8899845ad3d59bd9653f200f220920489ca2b5937696c31836040516116199190611f20565b60405180910390a3505050565b611631848484611166565b61163d8484848461192f565b61167c576040517f08c379a000000000000000000000000000000000000000000000000000000000815260040161167390612ee2565b60405180910390fd5b50505050565b606060405180602001604052806000815250905090565b6060600060016116a884611ab6565b01905060008167ffffffffffffffff8111156116c7576116c6612279565b5b6040519080825280601f01601f1916602001820160405280156116f95781602001600182028036833780820191505090505b509050600082602001820190505b60011561175c578080600190039150507f3031323334353637383961626364656600000000000000000000000000000000600a86061a8153600a85816117505761174f612f02565b5b04945060008503611707575b819350505050919050565b60008073ffffffffffffffffffffffffffffffffffffffff166117898361145f565b73ffffffffffffffffffffffffffffffffffffffff1614159050919050565b60018111156118c857600073ffffffffffffffffffffffffffffffffffffffff168473ffffffffffffffffffffffffffffffffffffffff161461183c5780600360008673ffffffffffffffffffffffffffffffffffffffff1673ffffffffffffffffffffffffffffffffffffffff16815260200190815260200160002060008282546118349190612f31565b925050819055505b600073ffffffffffffffffffffffffffffffffffffffff168373ffffffffffffffffffffffffffffffffffffffff16146118c75780600360008573ffffffffffffffffffffffffffffffffffffffff1673ffffffffffffffffffffffffffffffffffffffff16815260200190815260200160002060008282546118bf9190612888565b925050819055505b5b50505050565b50505050565b6118de8383611c09565b6118eb600084848461192f565b61192a576040517f08c379a000000000000000000000000000000000000000000000000000000000815260040161192190612ee2565b60405180910390fd5b505050565b60006119508473ffffffffffffffffffffffffffffffffffffffff16611e26565b15611aa9578373ffffffffffffffffffffffffffffffffffffffff1663150b7a02611979611010565b8786866040518563ffffffff1660e01b815260040161199b9493929190612fba565b6020604051808303816000875af19250505080156119d757506040513d601f19601f820116820180604052508101906119d4919061301b565b60015b611a59573d8060008114611a07576040519150601f19603f3d011682016040523d82523d6000602084013e611a0c565b606091505b506000815103611a51576040517f08c379a0000000000000000000000000000000000000000000000000000000008152600401611a4890612ee2565b60405180910390fd5b805181602001fd5b63150b7a0260e01b7bffffffffffffffffffffffffffffffffffffffffffffffffffffffff1916817bffffffffffffffffffffffffffffffffffffffffffffffffffffffff191614915050611aae565b600190505b949350505050565b600080600090507a184f03e93ff9f4daa797ed6e38ed64bf6a1f0100000000000000008310611b14577a184f03e93ff9f4daa797ed6e38ed64bf6a1f0100000000000000008381611b0a57611b09612f02565b5b0492506040810190505b6d04ee2d6d415b85acef81000000008310611b51576d04ee2d6d415b85acef81000000008381611b4757611b46612f02565b5b0492506020810190505b662386f26fc100008310611b8057662386f26fc100008381611b7657611b75612f02565b5b0492506010810190505b6305f5e1008310611ba9576305f5e1008381611b9f57611b9e612f02565b5b0492506008810190505b6127108310611bce576127108381611bc457611bc3612f02565b5b0492506004810190505b60648310611bf15760648381611be757611be6612f02565b5b0492506002810190505b600a8310611c00576001810190505b80915050919050565b600073ffffffffffffffffffffffffffffffffffffffff168273ffffffffffffffffffffffffffffffffffffffff1603611c78576040517f08c379a0000000000000000000000000000000000000000000000000000000008152600401611c6f90613094565b60405180910390fd5b611c8181611767565b15611cc1576040517f08c379a0000000000000000000000000000000000000000000000000000000008152600401611cb890613100565b60405180910390fd5b611ccf6000838360016117a8565b611cd881611767565b15611d18576040517f08c379a0000000000000000000000000000000000000000000000000000000008152600401611d0f90613100565b60405180910390fd5b6001600360008473ffffffffffffffffffffffffffffffffffffffff1673ffffffffffffffffffffffffffffffffffffffff16815260200190815260200160002060008282540192505081905550816002600083815260200190815260200160002060006101000a81548173ffffffffffffffffffffffffffffffffffffffff021916908373ffffffffffffffffffffffffffffffffffffffff160217905550808273ffffffffffffffffffffffffffffffffffffffff16600073ffffffffffffffffffffffffffffffffffffffff167fddf252ad1be2c89b69c2b068fc378daa952ba7f163c4a11628f55a4df523b3ef60405160405180910390a4611e226000838360016118ce565b5050565b6000808273ffffffffffffffffffffffffffffffffffffffff163b119050919050565b604051806060016040528060608152602001600081526020016000151581525090565b6000604051905090565b600080fd5b600080fd5b60007fffffffff0000000000000000000000000000000000000000000000000000000082169050919050565b611eb581611e80565b8114611ec057600080fd5b50565b600081359050611ed281611eac565b92915050565b600060208284031215611eee57611eed611e76565b5b6000611efc84828501611ec3565b91505092915050565b60008115159050919050565b611f1a81611f05565b82525050565b6000602082019050611f356000830184611f11565b92915050565b600081519050919050565b600082825260208201905092915050565b60005b83811015611f75578082015181840152602081019050611f5a565b60008484015250505050565b6000601f19601f8301169050919050565b6000611f9d82611f3b565b611fa78185611f46565b9350611fb7818560208601611f57565b611fc081611f81565b840191505092915050565b60006020820190508181036000830152611fe58184611f92565b905092915050565b6000819050919050565b61200081611fed565b811461200b57600080fd5b50565b60008135905061201d81611ff7565b92915050565b60006020828403121561203957612038611e76565b5b60006120478482850161200e565b91505092915050565b600073ffffffffffffffffffffffffffffffffffffffff82169050919050565b600061207b82612050565b9050919050565b61208b81612070565b82525050565b60006020820190506120a66000830184612082565b92915050565b6120b581612070565b81146120c057600080fd5b50565b6000813590506120d2816120ac565b92915050565b600080604083850312156120ef576120ee611e76565b5b60006120fd858286016120c3565b925050602061210e8582860161200e565b9150509250929050565b61212181611fed565b82525050565b600060208201905061213c6000830184612118565b92915050565b600082825260208201905092915050565b600061215e82611f3b565b6121688185612142565b9350612178818560208601611f57565b61218181611f81565b840191505092915050565b61219581611fed565b82525050565b6121a481611f05565b82525050565b600060608301600083015184820360008601526121c78282612153565b91505060208301516121dc602086018261218c565b5060408301516121ef604086018261219b565b508091505092915050565b6000602082019050818103600083015261221481846121aa565b905092915050565b60008060006060848603121561223557612234611e76565b5b6000612243868287016120c3565b9350506020612254868287016120c3565b92505060406122658682870161200e565b9150509250925092565b600080fd5b600080fd5b7f4e487b7100000000000000000000000000000000000000000000000000000000600052604160045260246000fd5b6122b182611f81565b810181811067ffffffffffffffff821117156122d0576122cf612279565b5b80604052505050565b60006122e3611e6c565b90506122ef82826122a8565b919050565b600067ffffffffffffffff82111561230f5761230e612279565b5b61231882611f81565b9050602081019050919050565b82818337600083830152505050565b6000612347612342846122f4565b6122d9565b90508281526020810184848401111561236357612362612274565b5b61236e848285612325565b509392505050565b600082601f83011261238b5761238a61226f565b5b813561239b848260208601612334565b91505092915050565b600080604083850312156123bb576123ba611e76565b5b600083013567ffffffffffffffff8111156123d9576123d8611e7b565b5b6123e585828601612376565b92505060206123f68582860161200e565b9150509250929050565b60006020828403121561241657612415611e76565b5b6000612424848285016120c3565b91505092915050565b61243681611f05565b811461244157600080fd5b50565b6000813590506124538161242d565b92915050565b600080604083850312156124705761246f611e76565b5b600061247e858286016120c3565b925050602061248f85828601612444565b9150509250929050565b600067ffffffffffffffff8211156124b4576124b3612279565b5b6124bd82611f81565b9050602081019050919050565b60006124dd6124d884612499565b6122d9565b9050828152602081018484840111156124f9576124f8612274565b5b612504848285612325565b509392505050565b600082601f8301126125215761252061226f565b5b81356125318482602086016124ca565b91505092915050565b6000806000806080858703121561255457612553611e76565b5b6000612562878288016120c3565b9450506020612573878288016120c3565b93505060406125848782880161200e565b925050606085013567ffffffffffffffff8111156125a5576125a4611e7b565b5b6125b18782880161250c565b91505092959194509250565b600080604083850312156125d4576125d3611e76565b5b60006125e2858286016120c3565b92505060206125f3858286016120c3565b9150509250929050565b7f4e487b7100000000000000000000000000000000000000000000000000000000600052602260045260246000fd5b6000600282049050600182168061264457607f821691505b602082108103612657576126566125fd565b5b50919050565b7f4552433732313a20617070726f76616c20746f2063757272656e74206f776e6560008201527f7200000000000000000000000000000000000000000000000000000000000000602082015250565b60006126b9602183611f46565b91506126c48261265d565b604082019050919050565b600060208201905081810360008301526126e8816126ac565b9050919050565b7f4552433732313a20617070726f76652063616c6c6572206973206e6f7420746f60008201527f6b656e206f776e6572206f7220617070726f76656420666f7220616c6c000000602082015250565b600061274b603d83611f46565b9150612756826126ef565b604082019050919050565b6000602082019050818103600083015261277a8161273e565b9050919050565b7f4552433732313a2063616c6c6572206973206e6f7420746f6b656e206f776e6560008201527f72206f7220617070726f76656400000000000000000000000000000000000000602082015250565b60006127dd602d83611f46565b91506127e882612781565b604082019050919050565b6000602082019050818103600083015261280c816127d0565b9050919050565b600081905092915050565b50565b600061282e600083612813565b91506128398261281e565b600082019050919050565b600061284f82612821565b9150819050919050565b7f4e487b7100000000000000000000000000000000000000000000000000000000600052601160045260246000fd5b600061289382611fed565b915061289e83611fed565b92508282019050808211156128b6576128b5612859565b5b92915050565b60008190508160005260206000209050919050565b60006020601f8301049050919050565b600082821b905092915050565b60006008830261291e7fffffffffffffffffffffffffffffffffffffffffffffffffffffffffffffffff826128e1565b61292886836128e1565b95508019841693508086168417925050509392505050565b6000819050919050565b600061296561296061295b84611fed565b612940565b611fed565b9050919050565b6000819050919050565b61297f8361294a565b61299361298b8261296c565b8484546128ee565b825550505050565b600090565b6129a861299b565b6129b3818484612976565b505050565b5b818110156129d7576129cc6000826129a0565b6001810190506129b9565b5050565b601f821115612a1c576129ed816128bc565b6129f6846128d1565b81016020851015612a05578190505b612a19612a11856128d1565b8301826129b8565b50505b505050565b600082821c905092915050565b6000612a3f60001984600802612a21565b1980831691505092915050565b6000612a588383612a2e565b9150826002028217905092915050565b612a7182611f3b565b67ffffffffffffffff811115612a8a57612a89612279565b5b612a94825461262c565b612a9f8282856129db565b600060209050601f831160018114612ad25760008415612ac0578287015190505b612aca8582612a4c565b865550612b32565b601f198416612ae0866128bc565b60005b82811015612b0857848901518255600182019150602085019450602081019050612ae3565b86831015612b255784890151612b21601f891682612a2e565b8355505b6001600288020188555050505b505050505050565b7f4552433732313a20696e76616c696420746f6b656e2049440000000000000000600082015250565b6000612b70601883611f46565b9150612b7b82612b3a565b602082019050919050565b60006020820190508181036000830152612b9f81612b63565b9050919050565b7f4552433732313a2061646472657373207a65726f206973206e6f74206120766160008201527f6c6964206f776e65720000000000000000000000000000000000000000000000602082015250565b6000612c02602983611f46565b9150612c0d82612ba6565b604082019050919050565b60006020820190508181036000830152612c3181612bf5565b9050919050565b6000612c4382611fed565b91507fffffffffffffffffffffffffffffffffffffffffffffffffffffffffffffffff8203612c7557612c74612859565b5b600182019050919050565b600081905092915050565b6000612c9682611f3b565b612ca08185612c80565b9350612cb0818560208601611f57565b80840191505092915050565b6000612cc88285612c8b565b9150612cd48284612c8b565b91508190509392505050565b7f4552433732313a207472616e736665722066726f6d20696e636f72726563742060008201527f6f776e6572000000000000000000000000000000000000000000000000000000602082015250565b6000612d3c602583611f46565b9150612d4782612ce0565b604082019050919050565b60006020820190508181036000830152612d6b81612d2f565b9050919050565b7f4552433732313a207472616e7366657220746f20746865207a65726f2061646460008201527f7265737300000000000000000000000000000000000000000000000000000000602082015250565b6000612dce602483611f46565b9150612dd982612d72565b604082019050919050565b60006020820190508181036000830152612dfd81612dc1565b9050919050565b7f4552433732313a20617070726f766520746f2063616c6c657200000000000000600082015250565b6000612e3a601983611f46565b9150612e4582612e04565b602082019050919050565b60006020820190508181036000830152612e6981612e2d565b9050919050565b7f4552433732313a207472616e7366657220746f206e6f6e20455243373231526560008201527f63656976657220696d706c656d656e7465720000000000000000000000000000602082015250565b6000612ecc603283611f46565b9150612ed782612e70565b604082019050919050565b60006020820190508181036000830152612efb81612ebf565b9050919050565b7f4e487b7100000000000000000000000000000000000000000000000000000000600052601260045260246000fd5b6000612f3c82611fed565b9150612f4783611fed565b9250828203905081811115612f5f57612f5e612859565b5b92915050565b600081519050919050565b600082825260208201905092915050565b6000612f8c82612f65565b612f968185612f70565b9350612fa6818560208601611f57565b612faf81611f81565b840191505092915050565b6000608082019050612fcf6000830187612082565b612fdc6020830186612082565b612fe96040830185612118565b8181036060830152612ffb8184612f81565b905095945050505050565b60008151905061301581611eac565b92915050565b60006020828403121561303157613030611e76565b5b600061303f84828501613006565b91505092915050565b7f4552433732313a206d696e7420746f20746865207a65726f2061646472657373600082015250565b600061307e602083611f46565b915061308982613048565b602082019050919050565b600060208201905081810360008301526130ad81613071565b9050919050565b7f4552433732313a20746f6b656e20616c7265616479206d696e74656400000000600082015250565b60006130ea601c83611f46565b91506130f5826130b4565b602082019050919050565b60006020820190508181036000830152613119816130dd565b905091905056fea2646970667358221220abdcc15b6136ef1a66030b55a4d04aefdba15bb1813af5d22a0383afd2f41ceb64736f6c63430008110033",
  "linkReferences": {},
  "deployedLinkReferences": {}
}